:020000040804EE
:1000000000000220194A04086548040873480408DF
:10001000794804087F480408854804080000000067
:10002000000000000000000000000000713D040816
:100030008B48040800000000B13F040899480408F8
:100040006D4A04086D4A04086D4A04086D4A0408A4
:100050006D4A04086D4A04086D4A04086D4A040894
:100060006D4A04086D4A04086D4A04086D4A040884
:100070006D4A04086D4A04086D4A04086D4A040874
:100080006D4A04086D4A04086D4A04086D4A040864
:100090006D4A04086D4A04086D4A04086D4A040854
:1000A0006D4A04086D4A04086D4A04086D4A040844
:1000B0006D4A04086D4A04086D4A04086D4A040834
:1000C0006D4A04086D4A04086D4A04086D4A040824
:1000D0006D4A04086D4A04086D4A04086D4A040814
:1000E0006D4A04086D4A04086D4A04086D4A040804
:1000F0006D4A04086D4A04086D4A04086D4A0408F4
:100100006D4A04086D4A04086D4A04086D4A0408E3
:100110006D4A04086D4A04086D4A04086D4A0408D3
:100120006D4A04086D4A04086D4A04086D4A0408C3
:100130006D4A04086D4A04086D4A04086D4A0408B3
:100140006D4A04086D4A04086D4A04086D4A0408A3
:100150006D4A04086D4A04086D4A04086D4A040893
:100160006D4A04086D4A04086D4A04086D4A040883
:100170006D4A04086D4A04086D4A04080000000036
:080180006D4A04086D4A0408F1
:1001900010B5054C237833B9044B13B10448AFF3C1
:1001A00000800123237010BD7400002000000000B7
:1001B000BC53040808B5034B1BB103490348AFF314
:1001C000008008BD0000000078000020BC53040837
:1001D00053B94AB9002908BF00281CBF4FF0FF31AE
:1001E0004FF0FF3000F072B9ADF1080C6DE904CEAC
:1001F00000F006F8DDF804E0DDE9022304B0704702
:100200002DE9F047089E04468846002B4BD18A42D0
:10021000154667D9B2FA82F24AB1C2F1200701FA53
:1002200002F320FA07F7954047EA030894404FEAA3
:10023000154E230CB8FBFEF71FFA85FC0EFB178842
:1002400043EA084307FB0CF1994209D9EB1807F17F
:10025000FF3080F01B81994240F21881023F2B440D
:100260005B1AA4B2B3FBFEF00EFB103344EA034466
:1002700000FB0CFCA44509D92C1900F1FF3380F0D8
:100280000781A44540F2048102382C4440EA07402B
:10029000A4EB0C0400271EB1D4400023C6E90043A0
:1002A0003946BDE8F0878B4209D9002E00F0EB807B
:1002B0000027C6E9000138463946BDE8F087B3FAA1
:1002C00083F7002F47D18B4202D3824200F2FA809B
:1002D000841A61EB030301209846002EE0D0C6E9A2
:1002E0000048DDE702B9FFDEB2FA82F2002A40F0F0
:1002F0008F80491B4FEA154E1FFA85F80127B1FB85
:10030000FEFC230C0EFB1C1143EA014308FB0CF11D
:10031000994207D9EB180CF1FF3002D2994200F252
:10032000CD808446591AA3B2B1FBFEF00EFB101427
:1003300043EA044408FB00F8A04507D92C1900F152
:10034000FF3302D2A04500F2B6801846A4EB0804A1
:1003500040EA0C409FE7C7F1200CBB4022FA0CFE9C
:100360004EEA030E01FA07F420FA0CF521FA0CF319
:100370004FEA1E482543B3FBF8F92C0C08FB193350
:100380001FFA8EFA44EA034309FB0AF49C4202FA7C
:1003900007F200FA07F10BD91EEB030309F1FF3056
:1003A00080F087809C4240F28480A9F10209734466
:1003B0001B1BADB2B3FBF8F008FB103345EA034456
:1003C00000FB0AFAA24508D91EEB040400F1FF3332
:1003D0006BD2A24569D90238744440EA0940A0FBB7
:1003E0000289A4EB0A044C45C2464B4654D351D073
:1003F000002E69D0B1EB0A0564EB030404FA0CFC8F
:10040000FD40FC404CEA0505C6E90054002747E7DB
:10041000C2F1200320FA03F7954001FA02F021FA15
:1004200003F34FEA154E3843010CB3FBFEF71FFAF6
:1004300085F80EFB173341EA034107FB08F38B42B3
:1004400004FA02F407D9691807F1FF3C2FD28B4256
:100450002DD9023F2944CB1A81B2B3FBFEF00EFB2B
:10046000103341EA034100FB08F38B4207D96918B6
:1004700000F1FF3C17D28B4215D902382944C91A22
:1004800040EA07473BE73746304609E70746E7E6D5
:100490001846FBE64145ABD2B8EB020A69EB0E0207
:1004A00001381346A4E76046E9E7184695E7674632
:1004B000D1E781467CE702382C4447E7ACF1020CD7
:1004C0002B442FE7384608E73746E9E6704700BF78
:1004D00080B500AF0E4B1B680D4A43F400731360E8
:1004E0000B4B1B680A4A43F480631360084B1B687C
:1004F000074A43F480731360032000F00DF90F20C6
:1005000000F008F804F03AF90023184680BD00BF57
:10051000003C024080B582B000AF7860124B1A6890
:10052000124B1B7819464FF47A73B3FBF1F3B2FB0D
:10053000F3F3184600F017F90346002B01D001230E
:100540000EE07B680F2B0AD8002279684FF0FF304D
:1005500000F0EDF8064A7B681360002300E00123F9
:1005600018460837BD4680BD0C000020040000205E
:100570000000002080B400AF064B1B781A46064BE3
:100580001B681344044A136000BFBD465DF8047B3A
:10059000704700BF04000020A849002080B400AFCD
:1005A000034B1B681846BD465DF8047B704700BFCF
:1005B000A849002080B485B000AF78607B6803F064
:1005C0000703FB600C4BDB68BB60BA684FF6FF03A8
:1005D0001340BB60FB681A02BB68134343F0BF6360
:1005E00043F40033BB60044ABB68D36000BF1437D8
:1005F000BD465DF8047B704700ED00E080B400AFBD
:10060000044BDB681B0A03F007031846BD465DF880
:10061000047B704700ED00E080B483B000AF034678
:100620003960FB7197F90730002B0ADB3B68DAB2BF
:100630000C4997F907301201D2B20B4483F800231A
:100640000AE03B68DAB20849FB7903F00F03043B88
:100650001201D2B20B441A7600BF0C37BD465DF8CA
:10066000047B704700E100E000ED00E080B489B059
:1006700000AFF860B9607A60FB6803F00703FB61C4
:10068000FB69C3F10703042B28BF0423BB61FB698B
:100690000433062B02D9FB69033B00E000237B6196
:1006A0004FF0FF32BB6902FA03F3DA43BB681A402A
:1006B0007B699A404FF0FF317B6901FA03F3D9431C
:1006C0007B680B40134318462437BD465DF8047B16
:1006D0007047000080B582B000AF78607B68013B56
:1006E000B3F1807F01D301230FE00A4A7B68013B0D
:1006F00053600F214FF0FF30FFF78EFF054B0022B4
:100700009A60044B07221A60002318460837BD463A
:1007100080BD00BF10E000E080B582B000AF78601F
:100720007868FFF747FF00BF0837BD4680BD80B53A
:1007300086B000AF0346B9607A60FB7300237B612B
:10074000FFF75CFF78617A68B9687869FFF78EFF18
:10075000024697F90F3011461846FFF75DFF00BFBC
:100760001837BD4680BD80B582B000AF786078682C
:10077000FFF7B0FF034618460837BD4680BD0000AE
:1007800080B489B000AF7860396000237B610023BA
:100790003B610023BB610023FB616BE10122FB692C
:1007A00002FA03F37B613B681B687A6913403B6183
:1007B0003A697B699A4240F05A813B685B68022B38
:1007C00003D03B685B68122B23D1FB69DA087B6896
:1007D000083253F82230BB61FB6903F007039B002A
:1007E0000F2202FA03F3DB43BA691340BB613B6893
:1007F0001A69FB6903F007039B0002FA03F3BA6965
:100800001343BB61FB69DA087B680832B96943F8B6
:1008100022107B681B68BB61FB695B00032202FA44
:1008200003F3DB43BA691340BB613B685B6803F0C9
:100830000302FB695B0002FA03F3BA691343BB616D
:100840007B68BA691A603B685B68012B0BD03B6818
:100850005B68022B07D03B685B68112B03D03B68B9
:100860005B68122B30D17B689B68BB61FB695B00C6
:10087000032202FA03F3DB43BA691340BB613B680E
:10088000DA68FB695B0002FA03F3BA691343BB61E0
:100890007B68BA699A607B685B68BB610122FB690F
:1008A00002FA03F3DB43BA691340BB613B685B6840
:1008B0001B0903F00102FB6902FA03F3BA6913434F
:1008C000BB617B68BA695A607B68DB68BB61FB69A6
:1008D0005B00032202FA03F3DB43BA691340BB61F6
:1008E0003B689A68FB695B0002FA03F3BA69134339
:1008F000BB617B68BA69DA603B685B6803F0805370
:10090000002B00F0B4800023FB605F4B5B6C5E4A01
:1009100043F4804353645C4B5B6C03F48043FB60A3
:10092000FB685A4AFB699B08023352F82330BB61CB
:10093000FB6903F003039B000F2202FA03F3DB437E
:10094000BA691340BB617B68514A93422BD07B68E4
:10095000504A934225D07B684F4A93421FD07B6810
:100960004E4A934219D07B684D4A934213D07B681C
:100970004C4A93420DD07B684B4A934207D07B6828
:100980004A4A934201D107230EE008230CE00623D4
:100990000AE0052308E0042306E0032304E0022321
:1009A00002E0012300E00023FA6902F00302920052
:1009B0009340BA691343BB613449FB699B08023316
:1009C000BA6941F823203A4B1B68BB613B69DB43A2
:1009D000BA691340BB613B685B6803F48033002B4A
:1009E00003D0BA693B691343BB61314ABB691360E9
:1009F0002F4B5B68BB613B69DB43BA691340BB614A
:100A00003B685B6803F40033002B03D0BA693B6991
:100A10001343BB61264ABB695360254B9B68BB618E
:100A20003B69DB43BA691340BB613B685B6803F415
:100A30008013002B03D0BA693B691343BB611C4A86
:100A4000BB6993601A4BDB68BB613B69DB43BA69E6
:100A50001340BB613B685B6803F40013002B03D0B9
:100A6000BA693B691343BB61114ABB69D360FB6937
:100A70000133FB61FB690F2B7FF690AE00BF24377B
:100A8000BD465DF8047B70470038024000380140E5
:100A9000000002400004024000080240000C024036
:100AA000001002400014024000180240001C0240E6
:100AB000003C014080B586B000AF78607B68002BB9
:100AC00001D101232DE27B681B6803F00103002B99
:100AD00075D0A34B9B6803F00C03042B0CD0A04BE8
:100AE0009B6803F00C03082B12D19D4B5B6803F449
:100AF0008003B3F5800F0BD1994B1B6803F40033CF
:100B0000002B5BD07B685B68002B57D1012308E288
:100B10007B685B68B3F5803F06D1914B1B68904AB8
:100B200043F4803313601DE07B685B68B3F5A02F4E
:100B30000CD18B4B1B688A4A43F480231360884B8B
:100B40001B68874A43F4803313600BE0844B1B68B7
:100B5000834A23F480331360814B1B68804A23F45B
:100B6000802313607B685B68002B13D0FFF716FDB2
:100B7000386108E0FFF712FD02463B69D31A642B87
:100B800001D90323CDE1764B1B6803F40033002B1E
:100B9000F0D014E0FFF702FD386108E0FFF7FEFC3B
:100BA00002463B69D31A642B01D90323B9E16C4B8C
:100BB0001B6803F40033002BF0D100E000BF7B681A
:100BC0001B6803F00203002B63D0654B9B6803F0A6
:100BD0000C03002B0BD0624B9B6803F00C03082B1B
:100BE0001CD15F4B5B6803F48003002B16D15C4B78
:100BF0001B6803F00203002B05D07B68DB68012B28
:100C000001D001238DE1564B1B6823F0F8027B686D
:100C10001B69DB00524913430B603AE07B68DB68D9
:100C2000002B20D04F4B01221A60FFF7B7FC386130
:100C300008E0FFF7B3FC02463B69D31A022B01D947
:100C400003236EE1464B1B6803F00203002BF0D038
:100C5000434B1B6823F0F8027B681B69DB004049AB
:100C600013430B6015E03F4B00221A60FFF796FC20
:100C7000386108E0FFF792FC02463B69D31A022B69
:100C800001D903234DE1364B1B6803F00203002B0F
:100C9000F0D17B681B6803F00803002B30D07B6821
:100CA0005B69002B16D0304B01221A60FFF776FCEF
:100CB000386108E0FFF772FC02463B69D31A022B49
:100CC00001D903232DE1264B5B6F03F00203002BB8
:100CD000F0D015E0244B00221A60FFF75FFC38616A
:100CE00008E0FFF75BFC02463B69D31A022B01D9EF
:100CF000032316E11A4B5B6F03F00203002BF0D1C4
:100D00007B681B6803F00403002B00F0A080002325
:100D1000FB75134B1B6C03F08053002B0FD100238A
:100D2000FB600F4B1B6C0E4A43F0805313640C4B5B
:100D30001B6C03F08053FB60FB680123FB750B4BBE
:100D40001B6803F48073002B21D1084B1B68074AF2
:100D500043F480731360FFF721FC386111E000BF9A
:100D60000038024000004742800E474200700040B9
:100D7000FFF714FC02463B69D31A022B01D9032367
:100D8000CFE06A4B1B6803F48073002BF0D07B68C4
:100D90009B68012B06D1664B1B6F654A43F001032C
:100DA00013671CE07B689B68052B0CD1604B1B6FA5
:100DB0005F4A43F0040313675D4B1B6F5C4A43F0CB
:100DC000010313670BE05A4B1B6F594A23F00103D1
:100DD0001367574B1B6F564A23F0040313677B6856
:100DE0009B68002B15D0FFF7D9FB38610AE0FFF7AD
:100DF000D5FB02463B69D31A41F28832934201D9AE
:100E000003238EE04A4B1B6F03F00203002BEED04E
:100E100014E0FFF7C3FB38610AE0FFF7BFFB0246AF
:100E20003B69D31A41F28832934201D9032378E017
:100E30003F4B1B6F03F00203002BEED1FB7D012B18
:100E400005D13B4B1B6C3A4A23F0805313647B68FB
:100E50009B69002B64D0364B9B6803F00C03082B76
:100E60005CD07B689B69022B41D1324B00221A6017
:100E7000FFF794FB386108E0FFF790FB02463B69FF
:100E8000D31A022B01D903234BE0294B1B6803F033
:100E90000073002BF0D17B68DA697B681B6A1A4308
:100EA0007B685B6A9B011A437B689B6A5B08013B1A
:100EB0001B041A437B68DB6A1B061D4913434B6006
:100EC0001C4B01221A60FFF769FB386108E0FFF74D
:100ED00065FB02463B69D31A022B01D9032320E0AC
:100EE000134B1B6803F00073002BF0D018E0114B7C
:100EF00000221A60FFF752FB386108E0FFF74EFB53
:100F000002463B69D31A022B01D9032309E0084B9F
:100F10001B6803F00073002BF0D101E0012300E017
:100F2000002318461837BD4680BD00BF0070004042
:100F3000003802406000474280B584B000AF78605E
:100F400039607B68002B01D10123CAE0674B1B6825
:100F500003F00F033A689A420CD9644B3A68D2B254
:100F60001A70624B1B6803F00F033A689A4201D073
:100F70000123B6E07B681B6803F00203002B20D03E
:100F80007B681B6803F00403002B05D0584B9B685B
:100F9000574A43F4E05393607B681B6803F00803EF
:100FA000002B05D0524B9B68514A43F46043936039
:100FB0004F4B9B6823F0F0027B689B684C491343BE
:100FC0008B607B681B6803F00103002B44D07B68B7
:100FD0005B68012B07D1464B1B6803F40033002BE1
:100FE00019D101237DE07B685B68022B03D07B680D
:100FF0005B68032B07D13E4B1B6803F00073002B8B
:1010000009D101236DE03A4B1B6803F00203002B6A
:1010100001D1012365E0364B9B6823F003027B6816
:101020005B68334913438B60FFF7B8FAF8600AE056
:10103000FFF7B4FA0246FB68D31A41F288329342B2
:1010400001D903234DE02A4B9B6803F00C027B6817
:101050005B689B009A42EBD1244B1B6803F00F03A3
:101060003A689A420CD2214B3A68D2B21A701F4B9E
:101070001B6803F00F033A689A4201D0012330E065
:101080007B681B6803F00403002B08D0184B9B6897
:1010900023F4E0527B68DB68154913438B607B685F
:1010A0001B6803F00803002B09D0114B9B6823F445
:1010B00060427B681B69DB000D4913438B6000F0C5
:1010C0001DF801460A4B9B681B0903F00F03094AF0
:1010D000D35C21FA03F3084A13600F20FFF71AFAD2
:1010E000002318461037BD4680BD00BF003C0240BB
:1010F00000380240285404080C000020F0B585B0E8
:1011000000AF00237B600023FB6000233B600023D3
:10111000BB60504B9B6803F00C03042B07D0082BDB
:1011200008D0002B40F08D804B4BBB608CE04B4BCC
:10113000BB6089E0474B5B6803F03F037B60454B36
:101140005B6803F48003002B23D0424B5B689B0950
:101150004FF0000440F2FF114FF0000203EA0105D6
:1011600004EA02063D4A02FB06F1002202FB05F2F8
:101170000A443A49A5FB0101531819467B684FF010
:1011800000041A462346FFF723F803460C46FB608B
:1011900049E0304B5B689B094FF0000440F2FF11BF
:1011A0004FF0000203EA010504EA0206294632462E
:1011B0004FF000034FF00004540144EAD1644B01A6
:1011C00019462246491B62EB06024FF000034FF01E
:1011D0000004940144EA91648B015B1A64EB0204FD
:1011E0004FF000014FF00002E20042EA5372D900D2
:1011F0000B4614465B1944EB06044FF000014FF018
:101200000002A20242EA935299020B461446184683
:1012100021467B684FF000041A462346FEF7D8FFAC
:1012200003460C46FB600B4B5B681B0C03F003038F
:1012300001335B003B60FA683B68B2FBF3F3BB60D1
:1012400002E0054BBB6000BFBB6818461437BD46C3
:10125000F0BD00BF003802400024F40040787D015A
:1012600080B400AF034B1B681846BD465DF8047B95
:10127000704700BF0C00002080B500AFFFF7F0FF03
:101280000146054B9B689B0A03F00703034AD35CA6
:1012900021FA03F3184680BD003802403854040890
:1012A00080B500AFFFF7DCFF0146054B9B685B0B89
:1012B00003F00703034AD35C21FA03F3184680BD09
:1012C000003802403854040880B582B000AFFFF700
:1012D00065F978605C4B1B685B4A43F0010313605F
:1012E00008E0FFF75BF902467B68D31A022B01D9AD
:1012F0000323A5E0544B1B6803F00203002BF0D03E
:10130000514B1B68504A43F080031360FFF746F9C6
:1013100078604D4B00229A600AE0FFF73FF90246E1
:101320007B68D31A41F28832934201D9032387E0C4
:10133000454B9B6803F00C03002BEED1FFF72EF911
:101340007860414B1B68404A23F45023136008E047
:10135000FFF724F902467B68D31A642B01D90323D3
:101360006EE0394B1B6803F40033002BF0D1FFF71C
:1013700015F97860344B1B68334A23F0807313608F
:1013800008E0FFF70BF902467B68D31A022B01D95C
:10139000032355E02C4B1B6803F00073002BF0D1A6
:1013A000FFF7FCF87860284B1B68274A23F080631E
:1013B000136008E0FFF7F2F802467B68D31A022BAD
:1013C00001D903233CE0204B1B6803F00063002B92
:1013D000F0D11D4B1D4A5A601B4B1D4AC3F8842097
:1013E000194BDB68184A23F4F853D360164BDB68BB
:1013F000154A23F40053D360134BDB68124A43F4BD
:101400001F03D360104BDB680F4A43F40013D36013
:101410000D4B5B6F0C4A23F0010353670A4B5B6F64
:10142000094A43F0807353670A4B0B4A1A600F2036
:10143000FFF770F80346002B01D0012300E00023E2
:1014400018460837BD4680BD003802401030000401
:10145000003000200C0000200024F40080B582B091
:1014600000AF78607B68002B01D101233FE07B68EF
:1014700093F83930DBB2002B06D17B68002283F869
:101480003820786803F0A6F97B68242283F8392095
:101490007B681B68DA687B681B6822F40052DA609C
:1014A000786800F00BF97B681B681A697B681B6819
:1014B00022F490421A617B681B685A697B681B683A
:1014C00022F02A025A617B681B68DA687B681B6815
:1014D00042F40052DA607B680022DA637B682022E3
:1014E00083F839207B68202283F83A2000231846AD
:1014F0000837BD4680BD80B588B002AFF860B960DE
:101500003B601346FB8000237B61FB6893F8393016
:10151000DBB2202B40F08380BB68002B02D0FB881D
:10152000002B01D101237BE0FB6893F83830012BBD
:1015300001D1022374E0FB68012283F83820FB68A4
:101540000022DA63FB68212283F83920FFF726F8AE
:101550007861FB68FA889A84FB68FA88DA8442E04A
:10156000FB68DB8C9BB2013B9AB2FB68DA84FB68B8
:101570009B68B3F5805F22D13B6800937B690022B2
:101580008021F86800F050F80346002B01D00323B7
:1015900046E0BB683B613B691B881A46FB681B68D9
:1015A000C2F308025A60FB681B69002B03D1BB68B9
:1015B0000233BB6017E0BB680133BB6013E03B68DC
:1015C00000937B6900228021F86800F02DF8034623
:1015D000002B01D0032323E0BB685A1CBA601A78A1
:1015E000FB681B685A60FB68DB8C9BB2002BB7D191
:1015F0003B6800937B6900224021F86800F014F8F2
:101600000346002B01D003230AE0FB68202283F865
:101610003920FB68002283F83820002300E00223F1
:1016200018461837BD4680BD80B584B000AFF8605D
:10163000B9603B601346FB712CE0BB69B3F1FF3F1F
:1016400028D0BB69002B07D0FEF7A8FF02463B68F5
:10165000D31ABA699A421DD2FB681B68DA68FB6824
:101660001B6822F4D072DA60FB681B685A69FB6859
:101670001B6822F001025A61FB68202283F839209E
:10168000FB68202283F83A20FB68002283F8382088
:1016900003230FE0FB681B681A68BB681340BA6835
:1016A0009A420CBF01230023DBB21A46FB799A420F
:1016B000C3D0002318461037BD4680BDB0B584B0F6
:1016C00000AF78607B681B681B6923F440517B681E
:1016D000DA687B681B680A431A617B689A687B68D2
:1016E0001B691A437B685B691A437B68DB69134398
:1016F000FB607B681B68DB6823F4164323F00C0354
:101700007A681268F9680B43D3607B681B685B6971
:1017100023F440717B689A697B681B680A435A61AD
:101720007B68DB69B3F5004F40F0E4807B681B68A1
:10173000AB4A934204D07B681B68AA4A93426CD19F
:10174000FFF7AEFD024613469B0013449A001A446D
:101750007B685B685B00B2FBF3F3A34AA2FB032345
:101760005B091C01FFF79CFD024613469B001344D6
:101770009A001A447B685B685B00B2FBF3F5FFF7E5
:101780008FFD024613469B0013449A001A447B685F
:101790005B685B00B2FBF3F3934AA2FB03235B0994
:1017A000642202FB03F3EB1ADB0032338E4AA2FB06
:1017B00003235B095B0003F4F8731C44FFF770FD1F
:1017C000024613469B0013449A001A447B685B68E8
:1017D0005B00B2FBF3F5FFF763FD024613469B0087
:1017E00013449A001A447B685B685B00B2FBF3F316
:1017F0007D4AA2FB03235B09642202FB03F3EB1A7D
:10180000DB003233784AA2FB03235B0903F00702B3
:101810007B681B6822449A6054E1FFF72DFD024665
:1018200013469B0013449A001A447B685B685B0074
:10183000B2FBF3F36C4AA2FB03235B091C01FFF725
:101840001BFD024613469B0013449A001A447B6812
:101850005B685B00B2FBF3F5FFF70EFD0246134633
:101860009B0013449A001A447B685B685B00B2FBE0
:10187000F3F35D4AA2FB03235B09642202FB03F33B
:10188000EB1ADB003233584AA2FB03235B095B00EF
:1018900003F4F8731C44FFF7EFFC024613469B0069
:1018A00013449A001A447B685B685B00B2FBF3F553
:1018B000FFF7E2FC024613469B0013449A001A44C9
:1018C0007B685B685B00B2FBF3F3474AA2FB032330
:1018D0005B09642202FB03F3EB1ADB003233424A5A
:1018E000A2FB03235B0903F007027B681B68224409
:1018F0009A60E7E07B681B68394A934204D07B68B2
:101900001B68384A934271D1FFF7CAFC024613465E
:101910009B0013449A001A447B685B689B00B2FBEF
:10192000F3F3314AA2FB03235B091C01FFF7B8FC68
:10193000024613469B0013449A001A447B685B6876
:101940009B00B2FBF3F5FFF7ABFC024613469B008E
:1019500013449A001A447B685B689B00B2FBF3F364
:10196000214AA2FB03235B09642202FB03F3EB1A67
:101970001B0132331C4AA2FB03235B0903F0F00373
:101980001C44FFF78DFC024613469B0013449A004B
:101990001A447B685B689B00B2FBF3F5FFF780FCA1
:1019A000024613469B0013449A001A447B685B6806
:1019B0009B00B2FBF3F30C4AA2FB03235B096422F6
:1019C00002FB03F3EB1A1B013233074AA2FB03238A
:1019D0005B0903F00F027B681B6822449A6071E088
:1019E00000100140001401401F85EB51FFF744FC3B
:1019F000024613469B0013449A001A447B685B68B6
:101A00009B00B2FBF3F3314AA2FB03235B091C01E9
:101A1000FFF732FC024613469B0013449A001A4417
:101A20007B685B689B00B2FBF3F5FFF725FC024681
:101A300013469B0013449A001A447B685B689B0022
:101A4000B2FBF3F3214AA2FB03235B09642202FBEE
:101A500003F3EB1A1B0132331C4AA2FB03235B097D
:101A600003F0F0031C44FFF707FC024613469B00FB
:101A700013449A001A447B685B689B00B2FBF3F541
:101A8000FFF7FAFB024613469B0013449A001A44E0
:101A90007B685B689B00B2FBF3F30C4AA2FB032359
:101AA0005B09642202FB03F3EB1A1B013233074A82
:101AB000A2FB03235B0903F00F027B681B6822442F
:101AC0009A60FFE700BF1037BD46B0BD1F85EB51E0
:101AD00080B485B000AFEFF30583BB60BB68002B1B
:101AE0000FD1EFF310837B607B68002B09D1114B82
:101AF0001B68022B09D1EFF311833B603B68002B7D
:101B000003D06FF00503FB600CE00A4B1B68002B51
:101B100005D1084B01221A600023FB6002E04FF060
:101B2000FF33FB60FB6818461437BD465DF8047B45
:101B3000704700BF9000002080B584B000AFEFF385
:101B40000583BB60BB68002B0FD1EFF310837B6074
:101B50007B68002B09D1114B1B68022B09D1EFF3D5
:101B600011833B603B68002B03D06FF00503FB60E3
:101B70000EE00A4B1B68012B07D1084B02221A60AA
:101B800001F06AF80023FB6002E04FF0FF33FB60D6
:101B9000FB6818461037BD4680BD00BF900000208E
:101BA00080B592B004AFF860B9607A6000237B61C1
:101BB000EFF305837B627B6A002B40F09480EFF3A8
:101BC00010833B623B6A002B40F08D80484B1B68C2
:101BD000022B06D1EFF31183FB61FB69002B40F070
:101BE0008280FB68002B7ED080233B631823FB623E
:101BF0000023FB7607F11B037B634FF0FF33BB62CF
:101C00007B68002B45D07B681B68002B02D07B686B
:101C10001B687B637B689B69002B02D07B689B6998
:101C2000FB62FB6A002B08D0FB6A382B05D87B6867
:101C30005B6803F00103002B01D0002354E07B68B4
:101C40005B69002B03D07B685B699B083B637B6807
:101C50009B68002B0ED07B68DB685B2B0AD97B6806
:101C60001B69002B06D07B685B69002B02D0012327
:101C7000BB6210E07B689B68002B0CD17B68DB6843
:101C8000002B08D17B681B69002B04D10023BB62A9
:101C900001E00023BB62BB6A012B10D17B681B698A
:101CA0007A68926802920193FB6A0093BB683A6B70
:101CB000796BF86800F008FE03467B6113E0BB6AAD
:101CC000002B10D13B6B9AB207F114030193FB6A0E
:101CD0000093BB68796BF86800F04FFE0346012B58
:101CE00001D000237B617B6918463837BD4680BD33
:101CF0009000002080B586B000AF7860EFF30583D8
:101D00003B613B69002B0FD1EFF31083FB60FB6855
:101D1000002B09D10D4B1B68022B09D1EFF3118366
:101D2000BB60BB68002B03D06FF005037B6107E04D
:101D300000237B617B68002B02D0786800F058FF9D
:101D40007B6918461837BD4680BD00BF9000002053
:101D500080B485B000AFF860B9607A60FB68074A6C
:101D60001A60BB68064A1A607B6880221A6000BF4E
:101D70001437BD465DF8047B704700BF9400002017
:101D8000F000002080B485B000AFF860B9607A60E0
:101D9000FB68074A1A60BB68064A1A607B684FF402
:101DA00080721A6000BF1437BD465DF8047B70472F
:101DB000F00200204C03002080B483B000AF7860B4
:101DC0007B6803F108027B685A607B684FF0FF3242
:101DD0009A607B6803F108027B68DA607B6803F134
:101DE00008027B681A617B6800221A6000BF0C370A
:101DF000BD465DF8047B704780B483B000AF786067
:101E00007B6800221A6100BF0C37BD465DF8047B79
:101E1000704780B485B000AF786039607B685B68DC
:101E2000FB603B68FA685A60FB689A683B689A6096
:101E3000FB689B683A685A60FB683A689A603B683E
:101E40007A681A617B681B685A1C7B681A6000BF3D
:101E50001437BD465DF8047B704780B485B000AF91
:101E6000786039603B681B68BB60BB68B3F1FF3FBB
:101E700003D17B681B69FB600CE07B680833FB6067
:101E800002E0FB685B68FB60FB685B681B68BA6824
:101E90009A42F6D2FB685A683B685A603B685B68B6
:101EA0003A689A603B68FA689A60FB683A685A60D8
:101EB0003B687A681A617B681B685A1C7B681A60E9
:101EC00000BF1437BD465DF8047B704780B485B011
:101ED00000AF78607B681B69FB607B685B687A6831
:101EE00092689A607B689B687A6852685A60FB685F
:101EF0005B687A689A4203D17B689A68FB685A608B
:101F00007B6800221A61FB681B685A1EFB681A6016
:101F1000FB681B6818461437BD465DF8047B7047A4
:101F200080B584B000AF786039607B68FB60FB6887
:101F3000002B09D14FF0500383F31188BFF36F8F4B
:101F4000BFF34F8FBB60FEE701F0D8FFFB681A6854
:101F5000FB68DB6BF968096C01FB03F31A44FB684F
:101F60005A60FB6800229A63FB681A68FB689A60F3
:101F7000FB681A68FB68DB6B013BF968096C01FBC5
:101F800003F31A44FB68DA60FB68FF2283F84420FD
:101F9000FB68FF2283F845203B68002B14D1FB68C7
:101FA0001B69002B1AD0FB681033184601F0DAF8D1
:101FB0000346002B12D00D4B4FF080521A60BFF336
:101FC0004F8FBFF36F8F09E0FB6810331846FFF7A0
:101FD000F3FEFB6824331846FFF7EEFE01F0BCFF6A
:101FE000012318461037BD4680BD00BF04ED00E058
:101FF00080B58EB002AFF860B9607A603B60FB6874
:10200000002B09D14FF0500383F31188BFF36F8F7A
:10201000BFF34F8FBB62FEE73B68002B09D14FF047
:10202000500383F31188BFF36F8FBFF34F8F7B6231
:10203000FEE77B68002B02D0BB68002B01D0012398
:1020400000E00023002B09D14FF0500383F31188E7
:10205000BFF36F8FBFF34F8F3B62FEE77B68002BB0
:1020600002D1BB68002B01D1012300E00023002B2B
:1020700009D14FF0500383F31188BFF36F8FBFF383
:102080004F8FFB61FEE750237B617B69502B09D0AA
:102090004FF0500383F31188BFF36F8FBFF34F8F5F
:1020A000BB61FEE73B68FB62FB6A002B0DD0FB6A5D
:1020B000012283F8462097F83820FB6A00931346E4
:1020C0007A68B968F86800F005F8FB6A1846303796
:1020D000BD4680BD80B584B000AFF860B9607A605D
:1020E000FB70BB68002B03D1BB69BA691A6002E0C0
:1020F000BB697A681A60BB69FA68DA63BB69BA6857
:102100001A640121B869FFF70BFFBB69FA7883F8FD
:102110004C2000BF1037BD4680BD000080B58EB09A
:1021200000AFF860B9607A603B6000237B63FB68B6
:102130003B633B6B002B09D14FF0500383F31188B5
:10214000BFF36F8FBFF34F8FBB62FEE7BB68002BFF
:1021500003D13B6B1B6C002B01D1012300E000235A
:10216000002B09D14FF0500383F31188BFF36F8F19
:10217000BFF34F8F7B62FEE73B68022B03D13B6BC3
:10218000DB6B012B01D1012300E00023002B09D1DF
:102190004FF0500383F31188BFF36F8FBFF34F8F5E
:1021A0003B62FEE701F09AF90346002B02D17B68FF
:1021B000002B01D1012300E00023002B09D14FF0B7
:1021C000500383F31188BFF36F8FBFF34F8FFB6111
:1021D000FEE701F093FE3B6B9A6B3B6BDB6B9A4225
:1021E00002D33B68022B29D13A68B968386B00F0FA
:1021F000FFF9F8623B6B5B6A002B10D03B6B24331A
:10220000184600F0AFFF0346002B13D03F4B4FF0B2
:1022100080521A60BFF34F8FBFF36F8F0AE0FB6AE3
:10222000002B07D0394B4FF080521A60BFF34F8F0D
:10223000BFF36F8F01F090FE012363E07B68002BFA
:1022400003D101F089FE00235CE07B6B002B06D1FB
:1022500007F11403184600F0E7FF01237B6301F048
:102260007BFE00F05DFD01F049FE3B6B93F84430CE
:102270005BB2B3F1FF3F03D13B6B002283F84420F4
:102280003B6B93F845305BB2B3F1FF3F03D13B6B3F
:10229000002283F8452001F05FFE3A1D07F1140388
:1022A0001146184600F0D6FF0346002B24D1386BA8
:1022B00000F096FA0346002B18D03B6B10337A6877
:1022C0001146184600F000FF386B00F021FA00F0CC
:1022D00035FD0346002B7FF47CAF0C4B4FF0805252
:1022E0001A60BFF34F8FBFF36F8F72E7386B00F048
:1022F0000FFA00F023FD6CE7386B00F009FA00F0EC
:102300001DFD002318463837BD4680BD04ED00E0B2
:1023100080B58EB000AFF860B9607A603B60FB6852
:102320003B633B6B002B09D14FF0500383F31188C3
:10233000BFF36F8FBFF34F8F7B62FEE7BB68002B4D
:1023400003D13B6B1B6C002B01D1012300E0002368
:10235000002B09D14FF0500383F31188BFF36F8F27
:10236000BFF34F8F3B62FEE73B68022B03D13B6B11
:10237000DB6B012B01D1012300E00023002B09D1ED
:102380004FF0500383F31188BFF36F8FBFF34F8F6C
:10239000FB61FEE701F08EFEEFF311824FF0500378
:1023A00083F31188BFF36F8FBFF34F8FBA617B61E7
:1023B000BB69FB623B6B9A6B3B6BDB6B9A4202D354
:1023C0003B68022B2CD13B6B93F8453087F82B30C0
:1023D0003A68B968386B00F00BF997F92B30B3F114
:1023E000FF3F12D13B6B5B6A002B16D03B6B243353
:1023F000184600F0B7FE0346002B0ED07B68002B7A
:102400000BD07B6801221A6007E097F82B3001336C
:10241000DBB25AB23B6B83F8452001237B6301E0BA
:1024200000237B63FB6A3B613B6983F311887B6B11
:1024300018463837BD4680BD80B58CB000AFF86017
:10244000B9607A600023FB62FB68BB62BB6A002B49
:1024500009D14FF0500383F31188BFF36F8FBFF39F
:102460004F8F3B62FEE7BB68002B03D1BB6A1B6C3E
:10247000002B01D1012300E00023002B09D14FF0F4
:10248000500383F31188BFF36F8FBFF34F8FFB614E
:10249000FEE701F023F80346002B02D17B68002BF6
:1024A00001D1012300E00023002B09D14FF050039C
:1024B00083F31188BFF36F8FBFF34F8FBB61FEE7CC
:1024C00001F01CFDBB6A9B6B7B627B6A002B1FD0FB
:1024D000B968B86A00F0F6F87B6A5A1EBB6A9A635C
:1024E000BB6A1B69002B0FD0BB6A1033184600F083
:1024F00039FE0346002B07D03C4B4FF080521A6048
:10250000BFF34F8FBFF36F8F01F026FD012369E00A
:102510007B68002B03D101F01FFD002362E0FB6A02
:10252000002B06D107F11003184600F07DFE0123B1
:10253000FB6201F011FD00F0F3FB01F0DFFCBB6A70
:1025400093F844305BB2B3F1FF3F03D1BB6A002282
:1025500083F84420BB6A93F845305BB2B3F1FF3F88
:1025600003D1BB6A002283F8452001F0F5FC3A1D37
:1025700007F110031146184600F06CFE0346002BCD
:1025800023D1B86A00F016F90346002B17D0BB6AB6
:1025900024337A681146184600F096FDB86A00F0B8
:1025A000B7F800F0CBFB0346002B89D10F4B4FF05F
:1025B00080521A60BFF34F8FBFF36F8F80E7B86A06
:1025C00000F0A6F800F0BAFB7AE7B86A00F0A0F8CD
:1025D00000F0B4FBB86A00F0EDF80346002B3FF4BE
:1025E0006FAF002318463037BD4680BD04ED00E0D4
:1025F00080B586B000AFF860B9607A6000237B6177
:10260000FB689B6B3B61FB681B6C002B0DD1FB686F
:102610001B68002B4DD1FB685B68184600F07CFFFF
:102620007861FB6800225A6043E07B68002B19D177
:10263000FB689868FB681B6C1A46B96802F042FA9E
:10264000FB689A68FB681B6C1A44FB689A60FB681D
:102650009A68FB685B689A422BD3FB681A68FB6830
:102660009A6026E0FB68D868FB681B6C1A46B9685C
:1026700002F028FAFB68DA68FB681B6C5B421A44BC
:10268000FB68DA60FB68DA68FB681B689A4207D26D
:10269000FB685A68FB681B6C5B421A44FB68DA6093
:1026A0007B68022B05D13B69002B02D03B69013BC3
:1026B0003B613B695A1CFB689A637B691846183773
:1026C000BD4680BD80B582B000AF786039607B6860
:1026D0001B6C002B18D07B68DA687B681B6C1A4473
:1026E0007B68DA607B68DA687B685B689A4203D350
:1026F0007B681A687B68DA607B68D9687B681B6CCA
:102700001A46386802F0DEF900BF0837BD4680BDC2
:1027100080B584B000AF786001F0F0FB7B6893F87F
:102720004530FB7311E07B685B6A002B12D07B683D
:102730002433184600F016FD0346002B01D000F0AC
:10274000E9FDFB7B013BDBB2FB7397F90F30002BFC
:10275000E9DC00E000BF7B68FF2283F8452001F040
:10276000FBFB01F0CBFB7B6893F84430BB7311E0BB
:102770007B681B69002B12D07B681033184600F071
:10278000F1FC0346002B01D000F0C4FDBB7B013BF4
:10279000DBB2BB7397F90E30002BE9DC00E000BF21
:1027A0007B68FF2283F8442001F0D6FB00BF10377E
:1027B000BD4680BD80B584B000AF786001F09EFB5F
:1027C0007B689B6B002B02D10123FB6001E000239F
:1027D000FB6001F0C1FBFB6818461037BD4680BDA9
:1027E00080B584B000AF786001F088FB7B689A6B9D
:1027F0007B68DB6B9A4202D10123FB6001E000237E
:10280000FB6001F0A9FBFB6818461037BD4680BD90
:1028100080B485B000AF786039600023FB6014E0BD
:102820000E4AFB6852F83330002B0BD10B49FB6882
:102830003A6841F83320094AFB68DB0013447A68A0
:102840005A6005E0FB680133FB60FB68072BE7D9A2
:1028500000BF1437BD465DF8047B7047AC490020CB
:1028600080B586B000AFF860B9607A60FB687B61C4
:1028700001F044FB7B6993F844305BB2B3F1FF3F56
:1028800003D17B69002283F844207B6993F84530AB
:102890005BB2B3F1FF3F03D17B69002283F845208F
:1028A00001F05AFB7B699B6B002B06D17B692433BB
:1028B0007A68B968184600F02BFC7869FFF728FFA2
:1028C00000BF1837BD4680BD80B58EB004AFF8603C
:1028D000B9607A603B607B6B002B09D14FF05003ED
:1028E00083F31188BFF36F8FBFF34F8F3B62FEE717
:1028F000BB6B002B09D14FF0500383F31188BFF35A
:102900006F8FBFF34F8FFB61FEE75C233B613B6939
:102910005C2B09D04FF0500383F31188BFF36F8F06
:10292000BFF34F8FBB61FEE7BB6B002B1ED07B6BF1
:10293000002B1BD0BB6B7B627B6A7A6B1A637B6A52
:10294000022283F85920002303937B6A029307F144
:10295000140301933B6B00933B687A68B968F8688D
:1029600000F050F8786A00F0D3F801E000237B61B2
:102970007B6918462837BD4680BD80B58CB004AF52
:10298000F860B9603B601346FB80FB889B001846EB
:1029900001F0CEFB78617B69002B0ED05C2001F04A
:1029A000C7FBF861FB69002B03D0FB697A691A63E6
:1029B00005E0786901F07EFC01E00023FB61FB6922
:1029C000002B17D0FB69002283F85920FA880023D6
:1029D0000393FB690293FB6A0193BB6A00933B6814
:1029E000B968F86800F00EF8F86900F091F8012372
:1029F000BB6102E04FF0FF33BB61BB691846203773
:102A0000BD4680BD80B588B000AFF860B9607A601F
:102A10003B603B6B186B7B689B001A46A52102F05C
:102A20005CF83B6B1A6B7B6803F18043013B9B00B6
:102A30001344BB61BB6923F00703BB61BB6903F0AF
:102A40000703002B09D04FF0500383F31188BFF325
:102A50006F8FBFF34F8F7B61FEE70023FB6112E0B6
:102A6000BA68FB69134419783A6BFB691344343331
:102A70000A461A70BA68FB6913441B78002B06D00B
:102A8000FB690133FB61FB690F2BE9D900E000BF53
:102A90003B6B002283F84320BB6A372B01D93723D5
:102AA000BB623B6BBA6ADA623B6BBA6ADA643B6B55
:102AB00000221A653B6B04331846FFF79DF93B6B08
:102AC00018331846FFF798F93B6B3A6B1A61BB6AEB
:102AD000C3F138023B6B9A613B6B3A6B5A623B6BBA
:102AE00000225A653B6B002283F858203A68F96847
:102AF000B86901F0DBF802463B6B1A60FB6A002BF9
:102B000002D0FB6A3A6B1A6000BF2037BD4680BD19
:102B100080B582B000AF786001F0F0F92D4B1B68F2
:102B200001332C4A13602C4B1B68002B09D12A4A15
:102B30007B681360274B1B68012B10D100F00EFC43
:102B40000DE0264B1B68002B09D1234B1B68DA6A6A
:102B50007B68DB6A9A4202D81F4A7B681360204B6D
:102B60001B6801331E4A13601D4B1A687B685A6448
:102B70007B68DA6A1B4B1B689A4203D97B68DB6A65
:102B8000184A13607B68DA6A13469B0013449B0063
:102B9000154A1A447B68043319461046FFF739F981
:102BA00001F0DAF90D4B1B68002B0ED00A4B1B68A5
:102BB000DA6A7B68DB6A9A4207D20C4B4FF080528C
:102BC0001A60BFF34F8FBFF36F8F00BF0837BD464A
:102BD00080BD00BF200C00204C0700202C0C0020E2
:102BE0003C0C0020280C00205007002004ED00E0E1
:102BF00080B584B000AF78600023FB607B68002B59
:102C000016D0134B1B68002B09D04FF0500383F3F1
:102C10001188BFF36F8FBFF34F8FBB60FEE700F0EB
:102C20007FF80021786800F0E3FC00F087F8F86096
:102C3000FB68002B07D1074B4FF080521A60BFF39F
:102C40004F8FBFF36F8F00BF1037BD4680BD00BFF1
:102C5000480C002004ED00E080B58AB004AF0023EA
:102C6000BB6000237B603A46391D07F10803184614
:102C7000FFF76EF839687B68BA6802920193002307
:102C8000009300230A4620492048FFF71DFE024614
:102C90001F4B1A601E4B1B68002B02D001237B6167
:102CA00001E000237B617B69012B02D100F0F4FC81
:102CB00078617B69012B15D14FF0500383F31188A4
:102CC000BFF36F8FBFF34F8F3B61124B4FF0FF325B
:102CD0001A60114B01221A60104B00221A6001F099
:102CE0006FF80DE07B69B3F1FF3F09D14FF050035E
:102CF00083F31188BFF36F8FBFF34F8FFB60FEE745
:102D000000BF1837BD4680BDD45304082D330408D6
:102D1000440C0020400C00202C0C0020240C00202F
:102D200080B400AF044B1B680133034A136000BF3B
:102D3000BD465DF8047B7047480C002080B584B028
:102D400000AF0023FB600023BB60414B1B68002BDE
:102D500009D14FF0500383F31188BFF36F8FBFF396
:102D60004F8F3B60FEE701F0C9F8394B1B68013B10
:102D7000374A1360364B1B68002B62D1354B1B68FA
:102D8000002B5ED02FE0344BDB68DB68FB60FB6818
:102D900018331846FFF79AF8FB6804331846FFF714
:102DA00095F8FB68DA6A2D4B1B689A4203D9FB68D9
:102DB000DB6A2A4A1360FB68DA6A13469B001344F5
:102DC0009B00274A1A44FB68043319461046FFF754
:102DD00020F8FB68DA6A234B1B68DB6A9A4202D34D
:102DE000214B01221A601C4B1B68002BCBD1FB68C6
:102DF000002B01D000F04CFB1C4B1B687B607B68F8
:102E0000002B10D000F046F80346002B02D0164BE2
:102E100001221A607B68013B7B607B68002BF1D14B
:102E2000124B00221A60104B1B68002B09D00123A3
:102E3000BB600F4B4FF080521A60BFF34F8FBFF350
:102E40006F8F01F089F8BB6818461037BD4680BD0A
:102E5000480C0020200C0020E00B0020280C002053
:102E6000500700204C070020340C0020300C0020BC
:102E700004ED00E080B483B000AF054B1B687B60BD
:102E80007B6818460C37BD465DF8047B704700BF71
:102E9000240C002080B586B000AF00237B61514B2D
:102EA0001B68002B40F08D804F4B1B6801333B614A
:102EB0004D4A3B6913603B69002B1FD14B4B1B688C
:102EC0001B68002B09D04FF0500383F31188BFF328
:102ED0006F8FBFF34F8F3B60FEE7444B1B68FB6077
:102EE000434B1B68414A1360414AFB681360414BE6
:102EF0001B6801333F4A136000F0CAFA3E4B1B685F
:102F00003A699A424ED3394B1B681B68002B01D19A
:102F1000012300E00023002B04D0374B4FF0FF3299
:102F20001A603FE0314B1B68DB68DB68BB60BB6845
:102F30005B687B603A697B689A4203D22E4A7B6861
:102F400013602FE0BB6804331846FEF7BFFFBB6871
:102F50009B6A002B04D0BB6818331846FEF7B6FFF7
:102F6000BB68DA6A254B1B689A4203D9BB68DB6AE7
:102F7000224A1360BB68DA6A13469B0013449B0025
:102F80001F4A1A44BB68043319461046FEF741FF36
:102F9000BB68DA6A1B4B1B68DB6A9A42B3D3012316
:102FA0007B61B0E7174B1B68DA6A154913469B0033
:102FB00013449B000B441B68012B07D901237B6141
:102FC00004E0114B1B6801330F4A13600F4B1B6861
:102FD000002B01D001237B617B6918461837BD4661
:102FE00080BD00BF480C0020240C0020D80B00201E
:102FF000DC0B0020380C0020400C0020280C0020A6
:10300000500700204C070020300C0020340C00201A
:1030100080B485B000AF274B1B68002B03D0264B34
:1030200001221A6040E0244B00221A60234B1B68E7
:10303000FB600FE0FB68002B09D14FF0500383F3D6
:103040001188BFF36F8FBFF34F8F7B60FEE7FB6884
:10305000013BFB601A49FA6813469B0013449B002E
:103060000B441B68002BE5D0FA6813469B00134401
:103070009B00134A1344BB60BB685B685A68BB681B
:103080005A60BB685A68BB6808339A4204D1BB686F
:103090005B685A68BB685A60BB685B68DB68094A52
:1030A0001360064AFB68136000BF1437BD465DF825
:1030B000047B7047480C0020340C0020280C0020B2
:1030C000500700204C07002080B584B000AF786026
:1030D00039607B68002B09D14FF0500383F31188CE
:1030E000BFF36F8FBFF34F8FFB60FEE7074B1B688B
:1030F000183319467868FEF7B0FE0121386800F0F1
:1031000077FA00BF1037BD4680BD00BF4C070020D6
:1031100080B586B000AFF860B9607A60FB68002BBC
:1031200009D14FF0500383F31188BFF36F8FBFF3C2
:103130004F8F7B61FEE70A4B1B6818331946F8680E
:10314000FEF767FE7B68002B02D04FF0FF33BB60B9
:103150007968B86800F04CFA00BF1837BD4680BDEA
:103160004C07002080B586B000AF78607B68DB68D4
:10317000DB683B613B69002B09D14FF0500383F3BF
:103180001188BFF36F8FBFF34F8FFB60FEE73B6982
:1031900018331846FEF79AFE1D4B1B68002B1DD1F5
:1031A0003B6904331846FEF791FE3B69DA6A194B16
:1031B0001B689A4203D93B69DB6A164A13603B6974
:1031C000DA6A13469B0013449B00134A1A443B6976
:1031D000043319461046FEF71CFE05E03B69183320
:1031E00019460E48FEF715FE3B69DA6A0C4B1B6860
:1031F000DB6A9A4205D901237B610A4B01221A60DE
:1032000001E000237B617B6918461837BD4680BD0D
:10321000480C0020280C002050070020E00B002064
:103220004C070020340C002080B483B000AF7860DD
:10323000064B1A687B681A60054B1A687B685A60EF
:1032400000BF0C37BD465DF8047B7047380C00208A
:10325000240C002080B588B000AF786039607B68AE
:10326000002B09D14FF0500383F31188BFF36F8F08
:10327000BFF34F8F3B61FEE73B68002B09D14FF056
:10328000500383F31188BFF36F8FBFF34F8FFB6041
:10329000FEE700F033FE1D4B1B68BB617B685B687B
:1032A000BA69D31A7B613B681B68B3F1FF3F02D157
:1032B0000023FB6123E07B681A68154B1B689A4268
:1032C00007D07B685B68BA699A4202D30123FB612D
:1032D00015E03B681B687A699A420BD23B681A6812
:1032E0007B69D21A3B681A607868FFF79DFF00235C
:1032F000FB6104E03B6800221A600123FB6100F0DF
:103300002BFEFB6918462037BD4680BD240C0020EB
:10331000380C002080B400AF034B01221A6000BFBC
:10332000BD465DF8047B7047340C002080B582B048
:1033300000AF786000F052F8064B1B68012BF9D9FA
:10334000054B4FF080521A60BFF34F8FBFF36F8F62
:10335000F0E700BF5007002004ED00E080B582B028
:1033600000AF00237B600CE07A6813469B00134497
:103370009B00124A13441846FEF71EFD7B6801337A
:103380007B607B68372BEFD90D48FEF715FD0D48A4
:10339000FEF712FD0C48FEF70FFD0C48FEF70CFD82
:1033A0000B48FEF709FD0B4B054A1A600A4B054A0C
:1033B0001A6000BF0837BD4680BD00BF500700201F
:1033C000B00B0020C40B0020E00B0020F40B002009
:1033D0000C0C0020D80B0020DC0B002080B582B044
:1033E00000AF19E000F08AFD0F4BDB68DB687B6003
:1033F0007B6804331846FEF769FD0C4B1B68013BE4
:103400000A4A13600A4B1B68013B094A136000F02B
:10341000A3FD786800F00EF8054B1B68002BE1D186
:1034200000BF0837BD4680BDF40B0020200C0020F3
:10343000080C002080B584B000AF78607B6893F8FA
:103440005930002B08D17B681B6B184600F032FF07
:10345000786800F02FFF17E07B6893F85930012B54
:1034600003D1786800F026FF0EE07B6893F85930AE
:10347000022B09D04FF0500383F31188BFF36F8FF5
:10348000BFF34F8FFB60FEE700BF1037BD4680BD26
:1034900080B483B000AF0F4B1B681B68002B01D1B9
:1034A000012300E00023002B04D00B4B4FF0FF3230
:1034B0001A6008E0074B1B68DB68DB687B607B6891
:1034C0005B68054A136000BF0C37BD465DF8047B9E
:1034D000704700BFD80B0020400C002080B483B0A0
:1034E00000AF0B4B1B68002B02D101237B6008E06F
:1034F000084B1B68002B02D102237B6001E00023F4
:103500007B607B6818460C37BD465DF8047B7047CE
:103510002C0C0020480C002080B586B000AF7860ED
:103520007B683B6100237B617B68002B54D02D4B73
:103530001B683A699A4209D04FF0500383F311880F
:10354000BFF36F8FBFF34F8FFB60FEE73B691B6DCF
:10355000002B09D14FF0500383F31188BFF36F8F15
:10356000BFF34F8FBB60FEE73B691B6D5A1E3B6983
:103570001A653B69DA6A3B69DB6C9A422CD03B697D
:103580001B6D002B28D13B6904331846FEF79EFCC7
:103590003B69DA6C3B69DA623B69DB6AC3F138028A
:1035A0003B699A613B69DA6A0F4B1B689A4203D9FF
:1035B0003B69DB6A0C4A13603B69DA6A13469B007D
:1035C00013449B00094A1A443B69043319461046C8
:1035D000FEF71FFC01237B617B6918461837BD4647
:1035E00080BD00BF4C070020280C002050070020A1
:1035F00080B584B000AF78603960214B1B68FB60F8
:10360000204B1B6804331846FEF760FC7B68B3F15F
:10361000FF3F0AD13B68002B07D01A4B1B680433CD
:1036200019461948FEF7F5FB26E0FA687B68134453
:10363000BB60144B1B68BA685A60BA68FB689A4250
:1036400009D2124B1A680F4B1B68043319461046F7
:10365000FEF703FC10E00E4B1A680A4B1B6804339C
:1036600019461046FEF7F9FB0A4B1B68BA689A42E6
:1036700002D2084ABB68136000BF1037BD4680BD48
:10368000240C00204C0700200C0C0020DC0B002038
:10369000D80B0020400C002080B58AB004AF002376
:1036A0007B6100F0C3FA1C4B1B68002B21D0002368
:1036B000FB600023BB603A1D07F1080107F10C0312
:1036C0001846FEF75FFB7968BB68FA6802920193BF
:1036D0000223009300230A4610491148FFF7F4F82B
:1036E0000246104B1A600F4B1B68002B01D00123C0
:1036F0007B617B69002B09D14FF0500383F3118864
:10370000BFF36F8FBFF34F8F3B61FEE77B691846B6
:103710001837BD4680BD00BF7C0C0020DC53040878
:1037200041380408800C002080B58AB000AFF860F2
:10373000B9607A603B6000237B62FB68002B09D193
:103740004FF0500383F31188BFF36F8FBFF34F8F98
:103750003B62FEE7194B1B68002B2AD0BB683B611C
:103760007B687B61FB68BB61BB68052B18DCFFF7DE
:10377000B5FE0346022B09D1104B186807F1100162
:1037800000233A6BFEF7CAFC786212E00B4B186814
:1037900007F1100100230022FEF7C0FC786208E068
:1037A000064B186807F1100100233A68FEF7B0FDD8
:1037B00078627B6A18462837BD4680BD7C0C0020A5
:1037C00080B588B002AF786039601C4B1B68DB683D
:1037D000DB687B617B6904331846FEF777FB7B6906
:1037E000DB69012B21D17B699A697B68D1187B68E1
:1037F0003A68786900F0C8F80346002B15D000231A
:10380000009300237A6800217869FFF78DFF386103
:103810003B69002B09D14FF0500383F31188BFF3AC
:103820006F8FBFF34F8FFB60FEE77B695B6A786940
:10383000984700BF1837BD4680BD00BF740C0020FC
:1038400080B584B000AF786007F10803184600F037
:1038500057F8F860BB681946F86800F003F800F004
:10386000D5F8F1E780B584B000AF78603960FFF734
:1038700057FA07F10803184600F066F8F860BB68CD
:10388000002B30D13B68002B0AD17A68FB689A4242
:1038900006D8FFF753FAF9687868FFF791FF24E03C
:1038A0003B68002B08D0134B1B681B68002B0CBF18
:1038B00001230023DBB23B600F4B18687A68FB687A
:1038C000D31A3A681946FEF7CBFFFFF737FA0346DB
:1038D000002B0AD1094B4FF080521A60BFF34F8F73
:1038E000BFF36F8F01E0FFF729FA00BF1037BD4625
:1038F00080BD00BF780C00207C0C002004ED00E0AF
:1039000080B485B000AF78600E4B1B681B68002B3D
:103910000CBF01230023DBB21A467B681A607B6868
:103920001B68002B05D1074B1B68DB681B68FB601D
:1039300001E00023FB60FB6818461437BD465DF8C4
:10394000047B7047740C002080B584B000AF7860B1
:10395000FFF790FAF8600B4B1B68FA689A4205D2A1
:1039600000F004F97B6801221A6002E07B68002203
:103970001A60044AFB681360FB6818461037BD469E
:1039800080BD00BF840C002080B586B000AFF86019
:10399000B9607A603B6000237B61FB68BA685A605B
:1039A000FB68FA681A61BA687B689A4212D87A682A
:1039B0003B68D21AFB689B699A4202D301237B6160
:1039C0001BE0104B1A68FB68043319461046FEF7DB
:1039D00044FA12E07A683B689A4206D2BA683B68B9
:1039E0009A4202D301237B6107E0074B1A68FB6808
:1039F000043319461046FEF730FA7B69184618372B
:103A0000BD4680BD780C0020740C002080B58EB0BF
:103A100002AF99E07B68002B17DA3B1D0433FB6291
:103A2000FB6A002B09D14FF0500383F31188BFF3D9
:103A30006F8FBFF34F8FFB61FEE7FB6A1B68FA6A6B
:103A40005068FA6A9268114698477B68002B7ADBC7
:103A5000FB68BB62BB6A5B69002B04D0BB6A0433A2
:103A60001846FEF733FA3B461846FFF76DFF7862BB
:103A70007B68092B68D801A252F823F0A53A040804
:103A8000A53A0408A53A0408493B0408FF3A04088B
:103A9000353B0408A53A0408A53A0408493B040844
:103AA000FF3A0408BA68BB6A9B69D118BB687A6A96
:103AB000B86AFFF769FF0346002B45D0BB6A5B6A13
:103AC000B86A9847BB6ADB69012B3DD1BA68BB6A0B
:103AD0009B691A440023009300230021B86AFFF772
:103AE00023FE38623B6A002B2ED14FF0500383F344
:103AF0001188BFF36F8FBFF34F8FBB61FEE7BA68CA
:103B0000BB6A9A61BB6A9B69002B09D14FF05003D5
:103B100083F31188BFF36F8FBFF34F8F7B61FEE795
:103B2000BB6A9A697B6AD1187B6A7A6AB86AFFF7BE
:103B30002BFF09E0BB6A93F82C30002B04D1B86A44
:103B400000F0B8FB00E000BF074B1B68391D0022E6
:103B50001846FEF771FC0346002B7FF45BAF00BFF5
:103B60003037BD4680BD00BF7C0C002080B588B0DA
:103B700002AF44E02B4B1B68DB681B683B61294BA1
:103B80001B68DB68DB68FB60FB6804331846FEF7E4
:103B90009DF9FB685B6AF8689847FB68DB69012B55
:103BA0002DD1FB689B693A691344BB60BA683B69D5
:103BB0009A420ED9FB68BA685A60FB68FA681A61C3
:103BC000184B1A68FB68043319461046FEF745F98E
:103BD00015E00023009300233A690021F868FFF7FD
:103BE000A3FD78607B68002B09D14FF0500383F36D
:103BF0001188BFF36F8FBFF34F8F3B60FEE7094B18
:103C00001B681B68002BB5D1064B1B687B61064BFC
:103C10001B68044A1360044A7B69136000BF1837AD
:103C2000BD4680BD740C0020780C002080B582B0A9
:103C300002AF00F063F9154B1B68002B20D114482C
:103C4000FEF7BAF81348FEF7B7F8134B104A1A609C
:103C5000124B104A1A6000230093114B114A102195
:103C60000A20FEF7C5F90246084B1A60074B1B688D
:103C7000002B05D0054B1B680B491846FEF7C8FD05
:103C800000F06AF900BFBD4680BD00BF7C0C00207B
:103C90004C0C0020600C0020740C0020780C0020DC
:103CA000280D0020880C0020E453040880B485B05F
:103CB00000AFF860B9607A60FB68043BFB60FB68AA
:103CC0004FF080721A60FB68043BFB60BB6823F016
:103CD0000102FB681A60FB68043BFB600C4AFB684E
:103CE0001A60FB68143BFB607A68FB681A60FB682B
:103CF000043BFB60FB686FF002021A60FB68203B2C
:103D0000FB60FB6818461437BD465DF8047B7047BE
:103D1000153D040880B485B000AF00237B60114BD3
:103D20001B68B3F1FF3F09D04FF0500383F31188B4
:103D3000BFF36F8FBFF34F8FFB60FEE74FF0500371
:103D400083F31188BFF36F8FBFF34F8FBB6000BF4A
:103D50007B68002BFCD000BF1437BD465DF8047BA8
:103D6000704700BF080000200000000000000000B5
:103D7000074B19680868B0E8F04F80F30988BFF373
:103D80006F8F4FF0000080F311887047AFF3008011
:103D90004C07002000BF00BF08480068006880F39F
:103DA00008884FF0000080F3148862B661B6BFF354
:103DB0004F8FBFF36F8F00DF00BF00BF08ED00E043
:103DC00080B586B000AF444B1B68444A934209D18A
:103DD0004FF0500383F31188BFF36F8FBFF34F8F02
:103DE0003B61FEE73C4B1B683D4A934209D14FF0D3
:103DF000500383F31188BFF36F8FBFF34F8FFB60C6
:103E0000FEE7384B7B617B691B78DBB27B607B69AB
:103E1000FF221A707B691B78DBB2FB70FB78DBB288
:103E200003F05003DAB2304B1A70304B07221A609D
:103E300009E02E4B1B68013B2C4A1360FB78DBB278
:103E40005B00DBB2FB70FB78DBB203F08003802BFE
:103E5000EFD0264B1B68C3F10703042B09D04FF0AA
:103E6000500383F31188BFF36F8FBFF34F8FBB6095
:103E7000FEE71E4B1B681B021C4A13601B4B1B6892
:103E800003F4E063194A13607B68DAB27B691A7045
:103E9000174B1B68164A43F470031360144B1B68DE
:103EA000134A43F07043136000F0D6F8114B002220
:103EB0001A6000F0F5F8104B1B680F4A43F04043BE
:103EC0001360FFF769FFFFF7A3F8FFF723FF002355
:103ED00018461837BD4680BD00ED00E071C20F41A5
:103EE00070C20F4100E400E0780D00207C0D00203E
:103EF00020ED00E00800002034EF00E080B483B043
:103F000000AF4FF0500383F31188BFF36F8FBFF3FF
:103F10004F8F7B600E4B1B6801330D4A13600C4BB7
:103F20001B68012B0ED10B4B1B68DBB2002B09D099
:103F30004FF0500383F31188BFF36F8FBFF34F8FA0
:103F40003B60FEE700BF0C37BD465DF8047B704761
:103F50000800002004ED00E080B483B000AF114BF6
:103F60001B68002B09D14FF0500383F31188BFF376
:103F70006F8FBFF34F8F7B60FEE70A4B1B68013BDF
:103F8000084A1360074B1B68002B04D100233B60D9
:103F90003B6883F3118800BF0C37BD465DF8047B96
:103FA000704700BF08000020000000000000000073
:103FB000EFF30980BFF36F8F154B1A681EF0100FD7
:103FC00008BF20ED108A20E9F04F10602DE90900AC
:103FD0004FF0500080F31188BFF34F8FBFF36F8F06
:103FE000FFF716F84FF0000080F3118809BC19683C
:103FF0000868B0E8F04F1EF0100F08BFB0EC108A50
:1040000080F30988BFF36F8F704700BFAFF3008064
:104010004C07002000BF00BF80B582B000AF4FF05A
:10402000500383F31188BFF36F8FBFF34F8F7B6013
:10403000FEF730FF0346002B03D0064B4FF08052B3
:104040001A6000233B603B6883F3118800BF083788
:10405000BD4680BD04ED00E080B400AF0B4B0022F4
:104060001A600B4B00221A600A4B1B680A4AA2FB1B
:1040700003239B09094A013B1360044B07221A6082
:1040800000BFBD465DF8047B704700BF10E000E054
:1040900018E000E00C000020D34D621014E000E0B6
:1040A000DFF80C00016841F470010160704700BF47
:1040B00088ED00E080B485B000AFEFF30583FB60CE
:1040C000FB680F2B13D9164AFB6813441B78FB724D
:1040D000144B1B78FA7A9A4209D24FF0500383F3BB
:1040E0001188BFF36F8FBFF34F8F7B60FEE70E4BDE
:1040F0001B6803F4E0620D4B1B689A4209D94FF02C
:10410000500383F31188BFF36F8FBFF34F8F3B6072
:10411000FEE700BF1437BD465DF8047B704700BF63
:10412000F0E300E0780D00200CED00E07C0D0020B5
:1041300080B58AB000AF78600023FB61FEF7F0FD28
:10414000574B1B68002B01D100F00CF9554B1A6836
:104150007B681340002B40F08C807B68002B1CD0C8
:1041600008227B6813447B607B6803F00703002B05
:1041700013D07B6823F0070308337B607B6803F070
:104180000703002B09D04FF0500383F31188BFF3CE
:104190006F8FBFF34F8F7B61FEE77B68002B68D08A
:1041A000414B1B687A689A4263D8404B3B623F4B55
:1041B0001B687B6204E07B6A3B627B6A1B687B62F4
:1041C0007B6A5B687A689A4203D97B6A1B68002B1A
:1041D000F1D1334B1B687A6A9A424AD03B6A1B681A
:1041E00008221344FB617B6A1A683B6A1A607B6A87
:1041F0005A687B68D21A08235B009A421ED97A6AF1
:104200007B681344BB61BB6903F00703002B09D033
:104210004FF0500383F31188BFF36F8FBFF34F8FBD
:104220003B61FEE77B6A5A687B68D21ABB695A60B9
:104230007B6A7A685A60B86900F0F6F81A4B1A6817
:104240007B6A5B68D31A184A1360174B1A68184BBD
:104250001B689A4203D2144B1B68154A13607B6A91
:104260005A68104B1B681A437B6A5A607B6A0022AB
:104270001A60FEF763FDFB6903F00703002B09D00A
:104280004FF0500383F31188BFF36F8FBFF34F8F4D
:10429000FB60FEE7FB6918462837BD4680BD00BFBE
:1042A00088490020944900208C4900208049002042
:1042B0009049002080B586B000AF78607B687B6154
:1042C0007B68002B46D008235B427A6913447B61EC
:1042D0007B693B613B695A68204B1B681340002B8C
:1042E00009D14FF0500383F31188BFF36F8FBFF3F1
:1042F0004F8FFB60FEE73B691B68002B09D04FF036
:10430000500383F31188BFF36F8FBFF34F8FBB60F0
:10431000FEE73B695A68114B1B681340002B19D00C
:104320003B691B68002B15D13B695A680B4B1B6816
:10433000DB431A403B695A60FEF7F2FC3B695A685E
:10434000074B1B681344064A1360386900F06CF889
:10435000FEF7F4FC00BF1837BD4680BD944900202D
:104360008C49002080B485B000AF4FF47053BB601F
:10437000274BFB60FB6803F00703002B0CD0FB68A6
:104380000733FB60FB6823F00703FB60BA68FB6838
:10439000D31A1F4A1344BB60FB687B601D4A7B68CD
:1043A00013601C4B00225A607B68BA681344FB60A0
:1043B0000822FB689B1AFB60FB6823F00703FB6085
:1043C000FB68154A1360144B1B6800225A60124B9D
:1043D0001B6800221A607B683B603B68FA68D21A4F
:1043E0003B685A600C4B1A683B681A603B685B6814
:1043F0000A4A13603B685B68094A1360094B4FF037
:1044000000421A6000BF1437BD465DF8047B704758
:10441000800D00208049002088490020904900201C
:104420008C4900209449002080B485B000AF7860AA
:10443000284BFB6002E0FB681B68FB60FB681B68A5
:104440007A689A42F7D8FB68BB60FB685B68BA6819
:1044500013447A689A4208D1FB685A687B685B68A3
:104460001A44FB685A60FB687B607B68BB607B68B2
:104470005B68BA681A44FB681B689A4218D1FB68EB
:104480001A68154B1B689A420DD07B685A68FB6806
:104490001B685B681A447B685A60FB681B681A6873
:1044A0007B681A6008E00C4B1A687B681A6003E0AE
:1044B000FB681A687B681A60FA687B689A4202D0C7
:1044C000FB687A681A6000BF1437BD465DF8047B4C
:1044D000704700BF804900208849002080B586B021
:1044E00000AFF860B9607A60FB68012B02D0FB680E
:1044F000022B10D17B689AB24FF0FF33B9680B489A
:10450000FCF7F9FF0346FB75FB7D002B01D17B68AF
:1045100008E0052306E000F0ABFA02460923136029
:104520004FF0FF3318461837BD4680BDF0490020D4
:1045300080B58CB000AF1F4B00221A601D4B0022CB
:104540001A601C4B00225A601A4B00229A601A4BC8
:104550001A4A9A60FCF7B8FEFBF7BAFF00F036F88B
:1045600000F0C8F800F09CF8EFF310837B627B6AE0
:10457000FB6272B60023BB62BB6A83F31088FDF74F
:10458000A7FA3B4624220021184600F0A6FA0C4B5D
:104590003B604FF400737B611823BB613B461A46B6
:1045A00000210848FDF7FCFA0246074B1A60FDF7A8
:1045B000C3FAFEE710E000E000ED00E000000408B0
:1045C000EC53040845470408EC49002080B594B03A
:1045D00000AF07F1200330220021184600F07DFAD9
:1045E00007F10C0300221A605A609A60DA601A61BF
:1045F0000023BB60284B1B6C274A43F08053136495
:10460000254B1B6C03F08053BB60BB6800237B60B1
:10461000224B1B68214A43F4804313601F4B1B68E5
:1046200003F480437B607B6802233B620123FB62CF
:1046300010233B630223BB630023FB6308233B641B
:1046400080237B640223BB640423FB6407F1200303
:104650001846FCF72FFA0346002B01D000F086F82D
:104660000F23FB6002233B6100237B614FF4A053C7
:10467000BB614FF4A053FB6107F10C030421184602
:10468000FCF75AFC0346002B01D000F06FF800BF86
:104690005037BD4680BD00BF00380240007000406A
:1046A00080B500AF114B124A1A60104B4FF4E13243
:1046B0005A600E4B00229A600C4B0022DA600B4BC2
:1046C00000221A61094B0C225A61084B00229A61A0
:1046D000064B0022DA610548FCF7C0FE0346002BBA
:1046E00001D000F043F800BF80BD00BFF0490020BA
:1046F0000010014080B483B000AF00237B60104BFA
:104700001B6B0F4A43F0010313630D4B1B6B03F04C
:1047100001037B607B6800233B60094B1B6B084AED
:1047200043F002031363064B1B6B03F002033B6071
:104730003B6800BF0C37BD465DF8047B704700BF87
:104740000038024080B582B000AF786062B605489C
:1047500000F028FA044800F025FA4FF47A70FDF7CB
:10476000C9FAF7E7F85304081854040880B400AFF6
:1047700000BFBD465DF8047B7047000080B582B085
:1047800000AF00237B60124B5B6C114A43F4804303
:1047900053640F4B5B6C03F480437B607B680023A6
:1047A0003B600B4B1B6C0A4A43F080531364084B6D
:1047B0001B6C03F080533B603B6800220F216FF0BD
:1047C0000100FBF7B4FF00BF0837BD4680BD00BF46
:1047D0000038024080B58AB000AF786007F114035A
:1047E00000221A605A609A60DA601A617B681B685E
:1047F000194A93422CD100233B61184B5B6C174A3A
:1048000043F010035364154B5B6C03F010033B61E2
:104810003B690023FB60114B1B6B104A43F0010303
:1048200013630E4B1B6B03F00103FB60FB684FF43B
:10483000C0637B610223BB610123FB6103233B62F5
:1048400007237B6207F1140319460548FBF798FF1D
:1048500000BF2837BD4680BD00100140003802402F
:104860000000024080B400AF00BFBD465DF8047B8D
:10487000704780B400AFFEE780B400AFFEE780B4BD
:1048800000AFFEE780B400AFFEE780B400AF00BF2A
:10489000BD465DF8047B704780B500AFFBF76AFE4C
:1048A000FEF71CFE0346012B01D0FFF7B5FB00BF4E
:1048B00080BD80B586B000AFF860B9607A60002333
:1048C0007B610AE0AFF300800146BB685A1CBA6006
:1048D000CAB21A707B6901337B617A697B689A423C
:1048E000F0DB7B6818461837BD4680BD80B584B0C4
:1048F00000AF7860114B1B68002B02D10F4B104AA0
:104900001A600E4B1B68FB600C4B1A687B681344E3
:104910006A46934207D900F0ABF802460C231360B5
:104920004FF0FF3306E0054B1A687B681344034AD7
:104930001360FB6818461037BD4680BD9C490020B7
:10494000384A002080B483B000AF78604FF0FF3366
:1049500018460C37BD465DF8047B704780B483B0C1
:1049600000AF786039603B684FF400525A60002312
:1049700018460C37BD465DF8047B704780B483B0A1
:1049800000AF7860012318460C37BD465DF8047B04
:10499000704780B485B000AFF860B9607A600023DA
:1049A00018461437BD465DF8047B704780B400AFED
:1049B000164BD3F88830154A43F47003C2F8883098
:1049C000134B1B68124A43F001031360104B002283
:1049D0009A600F4B1B680E4A23F0847323F48033D4
:1049E00013600B4B0B4A5A60094B1B68084A23F4AF
:1049F00080231360064B0022DA60044B4FF0006204
:104A00009A6000BFBD465DF8047B704700ED00E092
:104A10000038024010300024DFF838D0002104E0D4
:104A200073B60D4B5B58435004310C480C4B421885
:104A30009A42F6D30B4A02E0002342F8043B0A4BA9
:104A40009A42F9D3FFF7B2FF00F018F8FFF770FDB4
:104A50007047000000000220B45404080000002049
:104A60007400002074000020344A0020FEE700009B
:104A7000014B1868704700BF1000002070B50D4E44
:104A80000D4CA41BA4100025A54209D10B4E0C4CC3
:104A900000F094FCA41BA4100025A54205D170BD14
:104AA00056F8253098470135EEE756F825309847F7
:104AB0000135F2E7AC540408AC540408AC540408C3
:104AC000B054040810B5431E0A44914200D110BDF1
:104AD00011F8014B03F8014FF7E7024403469342F4
:104AE00000D1704703F8011BF9E7000070B50E46CE
:104AF000054618B183690BB900F00CFAAB69AC68D4
:104B000013B9284600F006FA234B9C4217D16C6873
:104B1000A3891B071DD52369DBB1013EA36816F8E5
:104B2000011F013BA360E9B9002B2EDA22460A21BE
:104B3000284600F03FF8013011D00A2011E0174B51
:104B40009C4201D1AC68E3E7154B9C4208BFEC687E
:104B5000DEE72146284600F07FF80028DDD04FF040
:104B6000FF3070BD002B04DAA2699A4206DC0A29E4
:104B700004D023685A1C22601970CFE722462846C9
:104B800000F018F80130C9D1E9E723680A205A1C5F
:104B900022601870E5E700BF6454040884540408D8
:104BA00044540408024B01461868FFF79FBF00BF3A
:104BB00010000020F8B50E461446054618B183696A
:104BC0000BB900F0A7F9214B9C422AD16C68A3696C
:104BD000A360A3891A072ED5236963B323692068CC
:104BE000C01A6369F6B28342374604DC2146284680
:104BF00000F026F928BBA368013BA36023685A1C78
:104C000022601E7063690130834204D0A389DB07F0
:104C100019D50A2E17D12146284600F011F990B176
:104C20000FE00B4B9C4201D1AC68D0E7094B9C4292
:104C300008BFEC68CBE72146284600F00DF80028B5
:104C4000CCD04FF0FF373846F8BD00BF645404089D
:104C50008454040844540408324B70B51D68064659
:104C60000C4625B1AB6913B9284600F053F92E4B19
:104C70009C420FD16C68B4F90C309AB215072CD451
:104C8000D00611D40922326043F04003A3814FF0D3
:104C9000FF303EE0254B9C4201D1AC68EBE7244B52
:104CA0009C4208BFEC68E6E7510712D5616B41B141
:104CB00004F14403994202D0304600F019FA00236F
:104CC0006363A38923F02403A38100236360236922
:104CD0002360A38943F00803A38123694BB9A38907
:104CE00003F42073B3F5007F03D02146304600F073
:104CF000BFF9A28912F001030CD00023A3606369FD
:104D00005B42A361236953B9B4F90C3013F08000FE
:104D1000BAD170BD920758BF6369A360F2E7002063
:104D2000F7E700BF1000002064540408845404080E
:104D3000445404088A892DE9F041054610070C46C1
:104D400058D44B68002B05DC0B6C002B02DC0020D8
:104D5000BDE8F081E66A002EF9D0002312F48052FB
:104D60002F68216A2B6032D0606DA3895A0705D560
:104D70006368C01A636B0BB1236CC01A0023024630
:104D8000E66A216A2846B047431CA38906D12968F0
:104D90001D2948D8294ACA40D60744D50022626056
:104DA000D9042269226004D5421C01D12B6803B9C1
:104DB0006065616B2F600029C9D004F144039942FA
:104DC00002D0284600F094F900206063C0E7012378
:104DD0002846B047411CC8D12B68002BC5D01D2BDD
:104DE00001D0162B01D12F60B1E7A38943F0400316
:104DF000A381ADE70F69002FA9D093070E6808BF04
:104E00004B690F6018BF0023A6EB07088B60B8F151
:104E1000000F9CDD43463A46216AA66A2846B04701
:104E2000002806DCA38943F04003A3814FF0FF3044
:104E30008EE70744A8EB0008E9E700BF0100402027
:104E400038B50B6905460C46DBB118B183690BB95F
:104E500000F060F80C4B9C4209D16C68B4F90C303E
:104E60007BB121462846BDE83840FFF763BF074BBA
:104E70009C4201D1AC68F1E7054B9C4208BFEC684D
:104E8000ECE7002038BD00BF6454040884540408D3
:104E900044540408002310B50446C0E9003383607D
:104EA00081814366C281C0E90433836119460822C7
:104EB0005C30FFF712FE054B6362054BA362054BA6
:104EC000E362054B2462236310BD00BF61520408F6
:104ED00083520408BB520408DF520408014900F061
:104EE00085B800BF414E040870B54A1E6825554379
:104EF0000E4605F1740100F049F9044640B1002165
:104F0000C0E900160C30A06005F16802FFF7E5FD6E
:104F1000204670BD836910B5044633BBC0E9123327
:104F20000365124B124A1B688262984204BF012338
:104F3000836100F01FF86060204600F01BF8A0605D
:104F4000204600F017F80022E06004216068FFF7B7
:104F5000A1FF01220921A068FFF79CFF0222122174
:104F6000E068FFF797FF0123A36110BD40540408D8
:104F7000DD4E0408F8B51B4B1E68B369074613B92C
:104F80003046FFF7C7FF4836D6E90134013B03D569
:104F9000336833B13668F7E7B4F90C506DB1683453
:104FA000F4E704213846FFF79FFF30600028F1D175
:104FB0000C233B6004462046F8BD0B4B6566C4E9F4
:104FC0000055A560C4E90335C4E905550822294602
:104FD00004F15C00FFF781FDC4E90D55C4E91255E9
:104FE000E9E700BF405404080100FFFF2DE9F84342
:104FF0008046894600F14804002614B93046BDE8D1
:10500000F883D4E90175013F01D52468F5E7AB8940
:10501000012B07D9B5F90E30013303D0294640469C
:10502000C84706436835EEE770B50E46B1F90E1075
:10503000002996B014461D4607DA00232B60B38979
:105040001A0610D44FF480630EE06A4600F06EF941
:105050000028F2DB019A02F47042A2F500535A4292
:105060005A412A60EEE740230020236016B070BD4D
:105070008B8973B59D0706460C4607D504F1470397
:10508000236023610123636102B070BD01AB6A46F6
:10509000FFF7CAFF00990546304600F077F848B997
:1050A000B4F90C309A05EFD423F0030343F0020364
:1050B000A381E3E70D4BB362A389206043F0800333
:1050C000A381009B6361019B20615BB1B4F90E1069
:1050D000304600F03DF928B1A38923F0030343F0E3
:1050E0000103A381A3891D43A581CDE7DD4E0408FB
:1050F00038B50546002945D051F8043C0C1F002B5B
:10510000B8BFE41800F046F91F4A1368104633B9D7
:10511000636014602846BDE8384000F03CB9A34203
:105120000CD921686218934204BF1A685B686360F7
:1051300004BF521822600460ECE713465A680AB1B3
:10514000A242FAD919685818A0420BD1206801442C
:10515000581882421960DDD1106852685A600144C3
:105160001960D7E702D90C232B60D3E720682118F8
:105170008A4204BF11685268626004BF0918216046
:105180005C60C7E738BD00BFA049002070B5CD1CEA
:1051900025F0030508350C2D38BF0C25002D0646DB
:1051A00001DBA94203D90C233360002070BD00F05D
:1051B000F1F8214A1468214691B9204C23681BB9A3
:1051C000304600F03DF820602946304600F038F8BF
:1051D000431C24D10C233360304600F0DCF8E4E7B4
:1051E0000B685B1B18D40B2B0FD90B60CD50CC1860
:1051F000304600F0D0F804F10B00231D20F007002A
:10520000C31AD3D05A42E250D0E78C424B6816BF43
:10521000636013600C46EBE70C464968CCE7C41C9E
:1052200024F00304A04205D0211A304600F008F80B
:105230000130CFD02560DBE7A0490020A449002041
:1052400038B5064C0023054608462360FFF74EFBA1
:10525000431C02D1236803B12B6038BD304A0020C3
:1052600010B50C46B1F90E1000F096F80028ABBF4F
:10527000636DA3891B1823F48053ACBF6365A381BE
:1052800010BD2DE9F0411F468B89DB0505460C4614
:10529000164605D502230022B1F90E1000F068F879
:1052A000A389B4F90E1023F48053A38132463B4600
:1052B0002846BDE8F04100F017B810B50C46B1F92A
:1052C0000E1000F055F8431CA38915BF606523F448
:1052D000805343F48053A38118BFA38110BDB1F95B
:1052E0000E1000F013B8000038B5074C054608460C
:1052F0001146002222601A46FFF7F0F8431C02D143
:10530000236803B12B6038BD304A002038B5064C05
:105310000023054608462360FFF714FB431C02D117
:10532000236803B12B6038BD304A002038B5074CE4
:1053300000230546084611462360FFF70FFB431C78
:1053400002D1236803B12B6038BD00BF304A002072
:1053500038B5064C0023054608462360FFF70EFBD0
:10536000431C02D1236803B12B6038BD304A0020B2
:1053700038B5074C054608461146002222601A46F9
:10538000FFF707FB431C02D1236803B12B6038BD34
:10539000304A00207047704738B5074C054608462C
:1053A0001146002222601A46FFF783FA431C02D1FD
:1053B000236803B12B6038BD304A0020F8B500BF28
:1053C000F8BC08BC9E467047F8B500BFF8BC08BCE6
:0453D0009E4670473E
:1053D40049444C4500000000546D7220537663002C
:1053E400546D72510000000064656661756C7454FC
:1053F40061736B0054686973206973206465666126
:10540400756C7420746872656164202E2E2E2E0DC6
:105414000000000052756E6E696E67202E2E2E2ECF
:105424000D00000000000000000000000102030461
:10543400060708090000000001020304140000200C
:105444000000000000000000000000000000000058
:105454000000000000000000000000000000000048
:105464000000000000000000000000000000000038
:105474000000000000000000000000000000000028
:105484000000000000000000000000000000000018
:105494000000000000000000000000000000000008
:0854A4005CADFF7F0100000078
:0454AC00B50104083A
:0454B000910104085A
:1054B4001000000001000000AAAAAAAA0024F40017
:1054C40014000020000000006454040884540408FC
:1054D4004454040800000000000000000000000024
:1054E40000000000000000000000000000000000B8
:1054F40000000000000000000000000000000000A8
:105504000000000000000000000000000000000097
:105514000000000000000000000000000000000087
:045524000000000083
:0400000508044A1988
:00000001FF
