:020000040804EE
:100000000000022081150408AD140408AF14040890
:10001000B1140408B3140408B51404080000000067
:10002000000000000000000000000000B7140408F9
:10003000B914040800000000BB140408BD1404082F
:10004000D1150408D1150408D1150408D1150408E8
:10005000D1150408D1150408D1150408D1150408D8
:10006000D1150408D1150408D1150408D1150408C8
:10007000D1150408D1150408D1150408D1150408B8
:10008000D1150408D1150408D1150408D1150408A8
:10009000D1150408D1150408D1150408D115040898
:1000A000D1150408D1150408D1150408D115040888
:1000B000D1150408D1150408D1150408D115040878
:1000C000D1150408D1150408D1150408D115040868
:1000D000D1150408D1150408D1150408D115040858
:1000E000D1150408D1150408D1150408D115040848
:1000F000D1150408D1150408D1150408D115040838
:10010000D1150408D1150408D1150408D115040827
:10011000D1150408D1150408D1150408D115040817
:10012000D1150408D1150408D1150408D115040807
:10013000D1150408D1150408D1150408D1150408F7
:10014000D1150408D1150408D1150408D1150408E7
:10015000D1150408D1150408D1150408D1150408D7
:10016000D1150408D1150408D1150408D1150408C7
:10017000D1150408D1150408D115040800000000A9
:08018000D1150408D115040893
:1001880010B5054C237833B9044B13B10448AFF3C9
:1001980000800123237010BD7000002000000000C3
:1001A800081F040808B5034B1BB103490348AFF304
:1001B800008008BD0000000074000020081F04082B
:1001C80053B94AB9002908BF00281CBF4FF0FF31B6
:1001D8004FF0FF3000F072B9ADF1080C6DE904CEB4
:1001E80000F006F8DDF804E0DDE9022304B070470A
:1001F8002DE9F047089E04468846002B4BD18A42D9
:10020800154667D9B2FA82F24AB1C2F1200701FA5B
:1002180002F320FA07F7954047EA030894404FEAAB
:10022800154E230CB8FBFEF71FFA85FC0EFB17884A
:1002380043EA084307FB0CF1994209D9EB1807F187
:10024800FF3080F01B81994240F21881023F2B4415
:100258005B1AA4B2B3FBFEF00EFB103344EA03446E
:1002680000FB0CFCA44509D92C1900F1FF3380F0E0
:100278000781A44540F2048102382C4440EA074033
:10028800A4EB0C0400271EB1D4400023C6E90043A8
:100298003946BDE8F0878B4209D9002E00F0EB8083
:1002A8000027C6E9000138463946BDE8F087B3FAA9
:1002B80083F7002F47D18B4202D3824200F2FA80A3
:1002C800841A61EB030301209846002EE0D0C6E9AA
:1002D8000048DDE702B9FFDEB2FA82F2002A40F0F8
:1002E8008F80491B4FEA154E1FFA85F80127B1FB8D
:1002F800FEFC230C0EFB1C1143EA014308FB0CF126
:10030800994207D9EB180CF1FF3002D2994200F25A
:10031800CD808446591AA3B2B1FBFEF00EFB10142F
:1003280043EA044408FB00F8A04507D92C1900F15A
:10033800FF3302D2A04500F2B6801846A4EB0804A9
:1003480040EA0C409FE7C7F1200CBB4022FA0CFEA4
:100358004EEA030E01FA07F420FA0CF521FA0CF321
:100368004FEA1E482543B3FBF8F92C0C08FB193358
:100378001FFA8EFA44EA034309FB0AF49C4202FA84
:1003880007F200FA07F10BD91EEB030309F1FF305E
:1003980080F087809C4240F28480A9F1020973446E
:1003A8001B1BADB2B3FBF8F008FB103345EA03445E
:1003B80000FB0AFAA24508D91EEB040400F1FF333A
:1003C8006BD2A24569D90238744440EA0940A0FBBF
:1003D8000289A4EB0A044C45C2464B4654D351D07B
:1003E800002E69D0B1EB0A0564EB030404FA0CFC97
:1003F800FD40FC404CEA0505C6E90054002747E7E4
:10040800C2F1200320FA03F7954001FA02F021FA1D
:1004180003F34FEA154E3843010CB3FBFEF71FFAFE
:1004280085F80EFB173341EA034107FB08F38B42BB
:1004380004FA02F407D9691807F1FF3C2FD28B425E
:100448002DD9023F2944CB1A81B2B3FBFEF00EFB33
:10045800103341EA034100FB08F38B4207D96918BE
:1004680000F1FF3C17D28B4215D902382944C91A2A
:1004780040EA07473BE73746304609E70746E7E6DD
:100488001846FBE64145ABD2B8EB020A69EB0E020F
:1004980001381346A4E76046E9E7184695E767463A
:1004A800D1E781467CE702382C4447E7ACF1020CDF
:1004B8002B442FE7384608E73746E9E6704700BF80
:1004C80010B504460E4B18784FF47A73B3FBF0F36B
:1004D8000C4A1068B0FBF3F000F088F868B90F2CEC
:1004E80001D901200AE0002221464FF0FF3000F038
:1004F80049F8034B5C60002000E0012010BD00BFFC
:10050800000000200800002008B50B4B1A6842F4D0
:1005180000721A601A6842F480621A601A6842F41B
:1005280080721A60032000F01BF80020FFF7C8FF54
:1005380000F060FF002008BD003C0240034A11683B
:10054800034B1B780B441360704700BF9C000020CE
:1005580000000020014B1868704700BF9C00002075
:10056800074AD36823F4E0631B041B0C000200F461
:10057800E060184340F0BF6040F40030D06070473E
:1005880000ED00E030B4174BDB68C3F30223C3F17E
:100598000704042C28BF04241D1D062D18D9033B6D
:1005A8004FF0FF3505FA04F421EA0401994005FAF1
:1005B80003F322EA0303194300280BDB0901C9B23C
:1005C80000F1604000F5614080F8001330BC7047CE
:1005D8000023E5E700F00F000901C9B2024B1954E6
:1005E800F4E700BF00ED00E014ED00E00138B0F1E1
:1005F800807F0AD2064B5860064AF02182F8231001
:100608000020986007221A6070470120704700BFD9
:1006180010E000E000ED00E000230F2B00F2D7808F
:10062800F0B482B039E0072200E00022B2403A4339
:100638000234674E46F82420664A1468EA4302EA00
:1006480004064F6817F4803F01D045EA0406614C60
:100658002660646802EA04064F6817F4003F01D078
:1006680045EA04065B4C6660A46802EA04064F6823
:1006780017F4801F01D045EA0406564CA660E468CA
:1006880022404E6816F4001F01D045EA0402514C7E
:10069800E26001330F2B00F2978001229A400C6828
:1006A80004EA0205AA42F4D14C68022C01D0122CAB
:1006B80010D1DE08083650F826C003F00704A7005A
:1006C8000F24BC402CEA040C0C69BC4044EA0C041E
:1006D80040F8264004685F000326BE40F64306EA59
:1006E800040C4C6804F00304BC4044EA0C040460A5
:1006F8004C6804F1FF3CBCF1010F03D9112C01D067
:10070800122C10D1846806EA040CCC68BC4044EA78
:100718000C048460446824EA02024C68C4F30014A0
:100728009C4014434460C26816408A68BA40324309
:10073800C2604A6812F0805FABD000220192264A5C
:10074800546C44F480445464526C02F48042019224
:10075800019A9C08A61C1E4A52F8267003F0030250
:1007680096000F22B24027EA02071C4A90423FF443
:100778005CAF02F5806290421AD002F58062904226
:1007880018D002F58062904216D002F5806290423D
:1007980014D002F58062904212D002F58062904235
:1007A80010D002F5806290423FF43DAF08223DE749
:1007B80001223BE7022239E7032237E7042235E723
:1007C800052233E7062231E702B0F0BC70477047D4
:1007D80000380140003C014000380240000002405F
:1007E800002800F0BB8170B582B00446036813F09E
:1007F800010F3BD0A74B9B6803F00C03042B2CD0B4
:10080800A44B9B6803F00C03082B21D06368B3F555
:10081800803F4FD0B3F5A02F52D09E4B1A6822F4D8
:1008280080321A601A6822F480221A606368002BEA
:1008380050D0FFF78FFE0546964B1B6813F4003F18
:1008480014D1FFF787FE401B6428F5D903208AE1FD
:10085800904B5B6813F4800FD8D08E4B1B6813F451
:10086800003F03D06368002B00F07A81236813F0FF
:10087800020F55D0874B9B6813F00C0F3ED0854B69
:100888009B6803F00C03082B33D0E368002B68D077
:10089800814B01221A60FFF75DFE05467D4B1B6800
:1008A80013F0020F54D1FFF755FE401B0228F5D96B
:1008B800032058E1774A136843F480331360B5E79F
:1008C800744B1A6842F480221A601A6842F4803223
:1008D8001A60ABE7FFF73EFE05466E4B1B6813F444
:1008E800003FC3D0FFF736FE401B6428F5D903202C
:1008F80039E1684B5B6813F4800FC6D1654B1B6800
:1009080013F0020F04D0E368012B01D001202AE183
:10091800604A136823F0F803216943EAC1031360AE
:10092800236813F0080F40D0636963B35B4B01225F
:100938001A60FFF70FFE0546564B5B6F13F0020F68
:1009480033D1FFF707FE401B0228F5D903200AE13F
:10095800504A136823F0F803216943EAC10313607E
:10096800DEE74D4B00221A60FFF7F4FD0546494BC0
:100978001B6813F0020FD3D0FFF7ECFD401B0228D1
:10098800F5D90320EFE0454B00221A60FFF7E2FD9E
:100998000546404B5B6F13F0020F06D0FFF7DAFDF8
:1009A800401B0228F5D90320DDE0236813F0040F6B
:1009B80079D0384B1B6C13F0805F33D1002301933F
:1009C800344B1A6C42F080521A641B6C03F080534B
:1009D8000193019B0125324B1B6813F4807F23D0C0
:1009E800A368012B34D0052B38D02A4B1A6F22F07C
:1009F80001021A671A6F22F004021A67A368002B13
:100A080036D0FFF7A7FD0646224B1B6F13F0020FE7
:100A180048D1FFF79FFD801B41F288339842F3D9F4
:100A28000320A0E00025D6E71D4A136843F480732D
:100A38001360FFF78FFD0646194B1B6813F4807F80
:100A4800CED1FFF787FD801B0228F5D903208AE065
:100A5800104A136F43F001031367CFE70D4B1A6F6A
:100A680042F004021A671A6F42F001021A67C5E7DA
:100A7800FFF770FD0646074B1B6F13F0020F11D0EE
:100A8800FFF768FD801B41F288339842F3D90320B1
:100A980069E000BF0038024000004742800E47422C
:100AA80000700040E5B9A369002B5BD0304A92681A
:100AB80002F00C02082A58D0022B17D02D4B002226
:100AC8001A60FFF747FD0446294B1B6813F0007FA7
:100AD80042D0FFF73FFD001B0228F5D9032042E072
:100AE800234A136C23F080531364DCE7214B002264
:100AF8001A60FFF72FFD05461D4B1B6813F0007F9A
:100B080006D0FFF727FD401B0228F5D903202AE06D
:100B1800E369226A1343626A43EA8213A26A5208AB
:100B2800013A43EA0243E26A43EA0263104A536025
:100B3800104B01221A60FFF70DFD04460C4B1B6891
:100B480013F0007F06D1FFF705FD001B0228F5D939
:100B5800032008E0002006E0002004E001207047A0
:100B6800012000E0002002B070BD0120FBE700BFBB
:100B78000038024060004742264B9B6803F00C0394
:100B8800042B44D0082B01D0234870472DE9F04BA3
:100B9800204B5A6802F03F025B6813F4800F13D0B1
:100BA8001C4B5968C1F3881100231C48A1FB0001A4
:100BB800FFF706FB174B5B68C3F3014301335B0088
:100BC800B0FBF3F0BDE8F08B124B5B68C3F38813FE
:100BD8001E4600275C010025E41A65EB0705A901FC
:100BE80041EA9461A001001B61EB0501CB0043EAD7
:100BF8005073C400A01943EB07018B0243EA9053DA
:100C08008402204619460023FFF7DAFAD2E70348A0
:100C1800704700BF003802400024F40040787D018E
:100C2800002800F09D8070B504464F4B1B6803F008
:100C38000F038B4209D2CBB24B4A1370136803F0EF
:100C48000F038B4201D0012070BD236813F0020FFF
:100C580017D013F0040F04D0444A936843F4E053C8
:100C68009360236813F0080F04D0404A936843F454
:100C7800604393603D4A936823F0F003A068034300
:100C880093600D46236813F0010F32D06368012B7F
:100C980021D09A1E012A25D9344A126812F0020F6F
:100CA80060D032498A6822F0030213438B60FFF751
:100CB80051FC06462D4B9B6803F00C036268B3EBAE
:100CC800820F16D0FFF746FC801B41F2883398420A
:100CD800F0D90320B8E7254A126812F4003FE0D1A2
:100CE8000120B1E7214A126812F0007FD9D1012012
:100CF800AAE71D4B1B6803F00F03AB4209D9EAB200
:100D0800194B1A701B6803F00F03AB4201D0012086
:100D18009AE7236813F0040F06D0144A936823F463
:100D2800E053E1680B439360236813F0080F07D082
:100D38000E4A936823F46043216943EAC103936030
:100D4800FFF71AFF094B9B68C3F30313084AD35CE8
:100D5800D840084B18600020FFF7B2FB002073E76B
:100D68000120704701206FE7003C02400038024034
:100D7800201F040808000020014B1868704700BFB6
:100D88000800002008B5FFF7F7FF044B9B68C3F382
:100D98008223034AD35CD84008BD00BF0038024014
:100DA800301F040808B5FFF7E7FF044B9B68C3F33F
:100DB8004233034AD35CD84008BD00BF0038024024
:100DC800301F04082DE9F84304460268136923F428
:100DD8004053C1680B431361836802691343426936
:100DE8001343C2691A430168CB6823F4164323F0FE
:100DF8000C031343CB600268536923F44073816981
:100E08000B435361C369B3F5004F60D00368B84A18
:100E1800934200F0148102F58062934200F00F8142
:100E2800FFF7B0FF00EB800000EB80006568AD00C5
:100E3800B0FBF5F5AF4FA7FB05356D092E01FFF7A0
:100E4800A1FF00EB800000EB80006568AD00B0FBFF
:100E5800F5F9FFF797FF00EB800000EB800065686D
:100E6800AD00B0FBF5F5A7FB05356D094FF064083B
:100E780008FB15952D013235A7FB05356D0905F0E1
:100E8800F0053544FFF77EFF00EB800000EB8000A3
:100E98006668B600B0FBF6F6FFF774FF00EB80005B
:100EA80000EB800063689B00B0FBF3F0A7FB003009
:100EB800400908FB10684FEA081808F13208A7FB38
:100EC8000837C7F3431723682F449F600DE1036871
:100ED800874A93425BD002F58062934257D0FFF76E
:100EE80051FF00EB800000EB800065686D00B0FBEF
:100EF800F5F5804FA7FB05356D092E01FFF742FF79
:100F080000EB800000EB800065686D00B0FBF5F930
:100F1800FFF738FF00EB800000EB800065686D008C
:100F2800B0FBF5F5A7FB05356D094FF0640808FB24
:100F38001595ED003235A7FB05356D096D0005F4F3
:100F4800F8753544FFF71EFF00EB800000EB8000CA
:100F580066687600B0FBF6F6FFF714FF00EB80003A
:100F680000EB800063685B00B0FBF3F3A7FB03238F
:100F78005B0908FB13684FEAC80808F13208A7FBA9
:100F88000837C7F3421723682F449F60ADE0FFF787
:100F980009FF00EB800000EB800065686D00B0FB86
:100FA800F5F5544FA7FB05356D092E01FFF7FAFE3D
:100FB80000EB800000EB800065686D00B0FBF5F980
:100FC800FFF7F0FE00EB800000EB800065686D0025
:100FD800B0FBF5F5A7FB05356D094FF0640808FB74
:100FE8001595ED003235A7FB05356D096D0005F443
:100FF800F8753544FFF7D6FE00EB800000EB800063
:1010080066687600B0FBF6F6FFF7CCFE00EB8000D2
:1010180000EB800063685B00B0FBF3F3A7FB0323DE
:101028005B0908FB13684FEAC80808F13208A7FBF8
:101038000837C7F3421723682F449F6055E0FFF72E
:10104800B1FE00EB800000EB80006568AD00B0FBEE
:10105800F5F5284FA7FB05356D092E01FFF7A2FE10
:1010680000EB800000EB80006568AD00B0FBF5F98F
:10107800FFF798FE00EB800000EB80006568AD008C
:10108800B0FBF5F5A7FB05356D094FF0640808FBC3
:1010980015952D013235A7FB05356D0905F0F005CD
:1010A8003544FFF77FFE00EB800000EB80006668A8
:1010B800B600B0FBF6F6FFF775FE00EB800000EB1C
:1010C800800063689B00B0FBF3F0A7FB0030400989
:1010D80008FB10684FEA081808F13208A7FB083720
:1010E800C7F3431723682F449F60BDE8F88300BF08
:1010F800001001401F85EB512DE9F04105460F46D0
:1011080016469846069C2B681B6837EA03030CBFF3
:1011180001230023B3421DD1B4F1FF3FF3D02CB11A
:10112800FFF718FAA0EB0800A042ECD92A68D368A8
:1011380023F4D073D3602A68536923F00103536101
:10114800202385F8393085F83A30002385F838307F
:10115800032000E00020BDE8F08158B310B5044634
:1011680090F839300BB3242384F839302268D368D7
:1011780023F40053D3602046FFF724FE2268136946
:1011880023F4904313612268536923F02A035361BF
:101198002268D36843F40053D3600020E06320231F
:1011A80084F8393084F83A3010BD80F8383000F0CF
:1011B8003DF9D8E7012070472DE9F04182B01E467D
:1011C80090F83930DBB2202B55D104460D469046B5
:1011D800002955D0002A55D090F83830012B53D02B
:1011E800012380F838300023C363212380F8393085
:1011F800FFF7B0F90746A4F82480A4F8268010E089
:1012080000963B46002280212046FFF775FF002804
:101218003CD12B882268C3F3080353602369C3B900
:101228000235E38C9BB2B3B1E38C013B9BB2E38400
:10123800A368B3F5805FE3D000963B460022802187
:101248002046FFF759FF18BB2A7823685A600135F2
:10125800E7E70135E5E700963B46002240212046B6
:10126800FFF74AFF0346A8B9202284F83920002254
:1012780084F8382000E00223184602B0BDE8F08167
:101288000123F9E70123F7E70223F5E70323F3E74F
:101298000323F1E70323EFE782B0002100910B4B12
:1012A8001A6B42F001021A631A6B02F001020092F3
:1012B800009A01911A6B42F002021A631B6B03F049
:1012C80002030193019B02B0704700BF003802403F
:1012D80008B50848084B03604FF4E1334360002326
:1012E8008360C36003610C2242618361C361FFF7BD
:1012F80034FF08BDA00000200010014010B50138DF
:10130800012809D814464FF0FF3392B20748FFF777
:1013180053FF40B9204610BD00F058F90923036077
:101328004FF0FF30F7E70520F5E700BFA0000020E9
:1013380070B594B03022002108A800F071F900249B
:101348000394049405940694079401941A4B1A6C18
:1013580042F080521A641B6C03F080530193019B86
:101368000294164B1A6842F480421A601B6803F410
:1013780080430293029B0225089501230B931023B7
:101388000C930E950F9408231093802311931295B4
:101398000426139608A8FFF723FA0F23039304954E
:1013A80005944FF4A05306930793314603A8FFF71B
:1013B80037FC14B070BD00BF003802400070004018
:1013C80008B5094B00221A6003F54F63074A9A6073
:1013D800FFF79AF8FFF7ACFFFFF75EFFFFF778FF1C
:1013E800034800F081F9FEE710E000E0000004087F
:1013F800381F040882B0002100910B4B5A6C42F44C
:1014080080425A645A6C02F480420092009A019118
:101418001A6C42F080521A641B6C03F080530193DB
:10142800019B02B0704700BF0038024000B589B088
:10143800002303930493059306930793026803F12B
:10144800804303F588339A4202D009B05DF804FB63
:101458000021019103F594335A6C42F010025A644A
:101468005A6C02F010020192019A02911A6B42F032
:1014780001021A631B6B03F001030293029B4FF4F2
:10148800C063039302230493012305930323069364
:101498000723079303A90248FFF7BEF8D5E700BF63
:1014A800000002407047FEE7FEE7FEE7FEE77047F0
:1014B8007047704708B5FFF741F808BD70B50D468D
:1014C8001646002404E0AFF300802870013401358B
:1014D800B442F8DB304670BD08B503460B4A1268C3
:1014E80042B10A4A106803446A46934206D8074A3A
:1014F800136008BD054A06491160F2E700F066F876
:101508000C2303604FF0FF30F3E700BF8C0000208E
:10151800E80000204FF0FF3070474FF400534B6055
:101528000020704701207047002070470F49D1F80C
:10153800883043F47003C1F888300D4B1A6842F0C4
:1015480001021A60002098601A6822F0847222F45E
:1015580080321A60074A5A601A6822F480221A6098
:10156800D8604FF000638B60704700BF00ED00E06B
:101578000038024010300024DFF834D0002103E0A6
:101588000C4B5B58435004310B480C4B42189A42A1
:10159800F6D30B4A02E0002342F8043B094B9A4277
:1015A800F9D3FFF7C3FF00F017F8FFF709FF7047FB
:1015B80000000220C81F040800000020700000205E
:1015C80070000020E4000020FEE70000014B1868CE
:1015D800704700BF0C00002070B50D4E0D4CA41BC9
:1015E800A4100025A54209D10B4E0C4C00F088FC34
:1015F800A41BA4100025A54205D170BD56F82530BE
:1016080098470135EEE756F8253098470135F2E757
:10161800C01F0408C01F0408C01F0408C41F040812
:1016280002440346934200D1704703F8011BF9E7CF
:1016380070B50E46054618B183690BB900F00CFA6F
:10164800AB69AC6813B9284600F006FA234B9C42F4
:1016580017D16C68A3891B071DD52369DBB1013E2F
:10166800A36816F8011F013BA360E9B9002B2EDA25
:1016780022460A21284600F03FF8013011D00A20FE
:1016880011E0174B9C4201D1AC68E3E7154B9C4233
:1016980008BFEC68DEE72146284600F07FF80028FE
:1016A800DDD04FF0FF3070BD002B04DAA2699A42FA
:1016B80006DC0A2904D023685A1C22601970CFE777
:1016C8002246284600F018F80130C9D1E9E7236816
:1016D8000A205A1C22601870E5E700BF781F04082A
:1016E800981F0408581F0408024B01461868FFF7A2
:1016F8009FBF00BF0C000020F8B50E4614460546F3
:1017080018B183690BB900F0A7F9214B9C422AD183
:101718006C68A369A360A3891A072ED5236963B3EC
:1017280023692068C01A6369F6B28342374604DC2D
:101738002146284600F026F928BBA368013BA36090
:1017480023685A1C22601E7063690130834204D0EA
:10175800A389DB0719D50A2E17D12146284600F0A0
:1017680011F990B10FE00B4B9C4201D1AC68D0E766
:10177800094B9C4208BFEC68CBE72146284600F09D
:101788000DF80028CCD04FF0FF373846F8BD00BF21
:10179800781F0408981F0408581F0408324B70B5B6
:1017A8001D6806460C4625B1AB6913B9284600F0FA
:1017B80053F92E4B9C420FD16C68B4F90C309AB295
:1017C80015072CD4D00611D40922326043F0400307
:1017D800A3814FF0FF303EE0254B9C4201D1AC681D
:1017E800EBE7244B9C4208BFEC68E6E7510712D5AB
:1017F800616B41B104F14403994202D0304600F0D4
:1018080019FA00236363A38923F02403A381002327
:10181800636023692360A38943F00803A3812369D4
:101828004BB9A38903F42073B3F5007F03D0214695
:10183800304600F0BFF9A28912F001030CD0002352
:10184800A36063695B42A361236953B9B4F90C309F
:1018580013F08000BAD170BD920758BF6369A360C6
:10186800F2E70020F7E700BF0C000020781F04080B
:10187800981F0408581F04088A892DE9F041054675
:1018880010070C4658D44B68002B05DC0B6C002B5A
:1018980002DC0020BDE8F081E66A002EF9D00023C2
:1018A80012F480522F68216A2B6032D0606DA389B0
:1018B8005A0705D56368C01A636B0BB1236CC01A4D
:1018C80000230246E66A216A2846B047431CA389DA
:1018D80006D129681D2948D8294ACA40D60744D5BF
:1018E80000226260D9042269226004D5421C01D119
:1018F8002B6803B96065616B2F600029C9D004F1BA
:101908004403994202D0284600F094F9002060630D
:10191800C0E701232846B047411CC8D12B68002BDB
:10192800C5D01D2B01D0162B01D12F60B1E7A3899B
:1019380043F04003A381ADE70F69002FA9D09307B7
:101948000E6808BF4B690F6018BF0023A6EB070895
:101958008B60B8F1000F9CDD43463A46216AA66ABF
:101968002846B047002806DCA38943F04003A3813A
:101978004FF0FF308EE70744A8EB0008E9E700BF07
:101988000100402038B50B6905460C46DBB118B19B
:1019980083690BB900F060F80C4B9C4209D16C6864
:1019A800B4F90C307BB121462846BDE83840FFF732
:1019B80063BF074B9C4201D1AC68F1E7054B9C42E1
:1019C80008BFEC68ECE7002038BD00BF781F0408AA
:1019D800981F0408581F0408002310B50446C0E9DE
:1019E8000033836081814366C281C0E90433836127
:1019F800194608225C30FFF713FE054B6362054B5E
:101A0800A362054BE362054B2462236310BD00BF4C
:101A1800AD1D0408CF1D0408071E04082B1E04086A
:101A2800014900F085B800BF8D19040870B54A1E39
:101A3800682555430E4605F1740100F049F904463E
:101A480040B10021C0E900160C30A06005F1680221
:101A5800FFF7E6FD204670BD836910B5044633BB29
:101A6800C0E912330365124B124A1B68826298421E
:101A780004BF0123836100F01FF86060204600F076
:101A88001BF8A060204600F017F80022E06004214F
:101A98006068FFF7A1FF01220921A068FFF79CFFFA
:101AA80002221221E068FFF797FF0123A36110BD0E
:101AB800541F0408291A0408F8B51B4B1E68B3699B
:101AC800074613B93046FFF7C7FF4836D6E9013451
:101AD800013B03D5336833B13668F7E7B4F90C50E6
:101AE8006DB16834F4E704213846FFF79FFF306092
:101AF8000028F1D10C233B6004462046F8BD0B4B6F
:101B08006566C4E90055A560C4E90335C4E905550F
:101B18000822294604F15C00FFF782FDC4E90D554F
:101B2800C4E91255E9E700BF541F04080100FFFF8C
:101B38002DE9F8438046894600F14804002614B987
:101B48003046BDE8F883D4E90175013F01D5246822
:101B5800F5E7AB89012B07D9B5F90E30013303D06E
:101B680029464046C84706436835EEE770B50E4635
:101B7800B1F90E10002996B014461D4607DA002365
:101B88002B60B3891A0610D44FF480630EE06A46BE
:101B980000F06EF90028F2DB019A02F47042A2F517
:101BA80000535A425A412A60EEE74023002023603E
:101BB80016B070BD8B8973B59D0706460C4607D5D0
:101BC80004F14703236023610123636102B070BD00
:101BD80001AB6A46FFF7CAFF00990546304600F098
:101BE80077F848B9B4F90C309A05EFD423F0030319
:101BF80043F00203A381E3E70D4BB362A38920609E
:101C080043F08003A381009B6361019B20615BB16A
:101C1800B4F90E10304600F03DF928B1A38923F03D
:101C2800030343F00103A381A3891D43A581CDE7E5
:101C3800291A040838B50546002945D051F8043C4E
:101C48000C1F002BB8BFE41800F046F91F4A1368B0
:101C5800104633B9636014602846BDE8384000F088
:101C68003CB9A3420CD921686218934204BF1A6890
:101C78005B68636004BF521822600460ECE7134697
:101C88005A680AB1A242FAD919685818A0420BD169
:101C980020680144581882421960DDD110685268E2
:101CA8005A6001441960D7E702D90C232B60D3E7A7
:101CB800206821188A4204BF11685268626004BF14
:101CC800091821605C60C7E738BD00BF9400002098
:101CD80070B5CD1C25F0030508350C2D38BF0C2533
:101CE800002D064601DBA94203D90C2333600020EE
:101CF80070BD00F0F1F8214A1468214691B9204CD2
:101D080023681BB9304600F03DF82060294630466C
:101D180000F038F8431C24D10C233360304600F01F
:101D2800DCF8E4E70B685B1B18D40B2B0FD90B60AE
:101D3800CD50CC18304600F0D0F804F10B00231D2C
:101D480020F00700C31AD3D05A42E250D0E78C42A1
:101D58004B6816BF636013600C46EBE70C46496896
:101D6800CCE7C41C24F00304A04205D0211A304655
:101D780000F008F80130CFD02560DBE794000020A0
:101D88009800002038B5064C002305460846236015
:101D9800FFF7A2FB431C02D1236803B12B6038BDB7
:101DA800E000002010B50C46B1F90E1000F096F8CE
:101DB8000028ABBF636DA3891B1823F48053ACBF05
:101DC8006365A38110BD2DE9F0411F468B89DB05B2
:101DD80005460C46164605D502230022B1F90E1019
:101DE80000F068F8A389B4F90E1023F48053A38196
:101DF80032463B462846BDE8F04100F017B810B51A
:101E08000C46B1F90E1000F055F8431CA38915BF14
:101E1800606523F4805343F48053A38118BFA381E2
:101E280010BDB1F90E1000F013B8000038B5074C1A
:101E3800054608461146002222601A46FFF75EFA58
:101E4800431C02D1236803B12B6038BDE000002099
:101E580038B5064C0023054608462360FFF75AFBB1
:101E6800431C02D1236803B12B6038BDE000002079
:101E780038B5074C00230546084611462360FFF78E
:101E88004CFB431C02D1236803B12B6038BD00BF53
:101E9800E000002038B5064C0023054608462360BC
:101EA800FFF740FB431C02D1236803B12B6038BD08
:101EB800E000002038B5074C0546084611460022C8
:101EC80022601A46FFF730FB431C02D1236803B196
:101ED8002B6038BDE00000207047704738B5074CCC
:101EE800054608461146002222601A46FFF7E6FA20
:101EF800431C02D1236803B12B6038BDE0000020E9
:101F0800F8B500BFF8BC08BC9E467047F8B500BFDE
:081F1800F8BC08BC9E467047AE
:101F20000000000000000000010203040607080989
:101F300000000000010203045468697320697320E3
:101F40006170706C69636174696F6E2E2E2E2E0D38
:101F50000000000010000020000000000000000051
:101F60000000000000000000000000000000000071
:101F70000000000000000000000000000000000061
:101F80000000000000000000000000000000000051
:101F90000000000000000000000000000000000041
:101FA0000000000000000000000000000000000031
:081FB000000000000000000029
:081FB80040E2FF7F0100000080
:041FC000AD01040863
:041FC4008901040883
:101FC80001000000100000000024F40010000020B0
:101FD80000000000781F0408981F0408581F040810
:101FE80000000000000000000000000000000000E9
:101FF80000000000000000000000000000000000D9
:1020080000000000000000000000000000000000C8
:1020180000000000000000000000000000000000B8
:1020280000000000000000000000000000000000A8
:040000050804158155
:00000001FF
